:020000040800F2
:10000000D01B00209505000881020008830200082B
:100010008F0200089B020008A702000800000000F1
:10002000000000000000000000000000B302000813
:10003000B502000800000000AB050008B702000888
:10004000AF050008AF050008AF050008BB020008B7
:10005000AF050008AF050008B9020008AF050008A9
:10006000AF050008AF050008AF050008AF050008A0
:10007000AF050008AF050008AF050008AF05000890
:10008000AF050008AF050008AF050008AF05000880
:10009000AF050008AF050008AF050008AF05000870
:1000A000AF050008AF050008AF050008AF05000860
:1000B000AF050008AF050008AF050008AF05000850
:1000C000AF050008AF050008AF050008AF05000840
:1000D000AF050008372A0008C14D0008AF05000829
:1000E000AF050008AF050008AF050008AF05000820
:1000F000AF050008AF050008AF050008AF05000810
:10010000AF050008AF050008AF050008AF050008FF
:10011000AF050008AF050008AF050008AF050008EF
:10012000AF050008AF050008AF050008AF050008DF
:1001300000F002F800F094F80AA090E8000C824465
:100140008344AAF10107DA4501D100F089F8AFF242
:10015000090EBAE80F0013F0010F18BFFB1A43F0A5
:1001600001031847F476000014770000103A24BF0A
:1001700078C878C1FAD8520724BF30C830C144BF0C
:1001800004680C607047000000230024002500264E
:10019000103A28BF78C1FBD8520728BF30C148BFEA
:1001A0000B6070476E2905F06182702905F0C183EC
:1001B000662906F06887652906F06587672906F0D5
:1001C00062876129AFF3008003681B0A28BF41F0F2
:1001D0008001692904F04687642904F04387752962
:1001E00004F040876F2905F04E83782905F08D8350
:1001F000E92905F0E982E42905F0E682F52905F010
:10020000E382EF2905F04B83F82905F08C8303681E
:10021000DB0928BF41F08001632905F06A82732958
:1002200005F06F82E32905F07D86F32905F08286CB
:10023000002070471FB59DE8030005F04FF905F059
:1002400019FF04000020002106F058FC401C6060EB
:100250000020002106F068FCE0601FBD10B510BD55
:1002600005F0E3FE1146FFF7E5FF02F0F7FB05F0AE
:10027000C5FF03B4FFF7F2FF03BC05F0F5FF000074
:1002800070470EA11C4802F0B2FB00BFFEE71BA1A5
:10029000194802F0ACFB00BFFEE727A1164802F0A8
:1002A000A6FB00BFFEE733A1134802F0A0FB00BF8E
:1002B000FEE7704770477047704770470D0A2A2A5B
:1002C0002A2A2A2A2A2A2A2A2A2A2A2A2A2A2A2A8E
:1002D0002A486172644661756C745F48616E646C33
:1002E00065722A2A2A2A2A2A2A2A2A2A2A2A2A2AEB
:1002F0002A2A2A2A2A0D0A00003801400D0A2A2A31
:100300002A2A2A2A2A2A2A2A2A2A2A2A2A2A2A2A4D
:100310002A4D656D4D616E6167655F48616E646C05
:1003200065722A2A2A2A2A2A2A2A2A2A2A2A2A2AAA
:100330002A2A2A2A2A0D0A000D0A2A2A2A2A2A2AC1
:100340002A2A2A2A2A2A2A2A2A2A2A2A2A42757361
:100350004661756C745F48616E646C65722A2A2A06
:100360002A2A2A2A2A2A2A2A2A2A2A2A2A2A2A2AED
:100370000D0A00000D0A2A2A2A2A2A2A2A2A2A2AAB
:100380002A2A2A2A2A2A2A2A2A5573616765466157
:10039000756C745F48616E646C65722A2A2A2A2A19
:1003A0002A2A2A2A2A2A2A2A2A2A2A2A2A2A0D0AEA
:1003B000000000000CB50020019000906C4800681F
:1003C00040F480306A49086000BF6948006800F462
:1003D000003000900198401C0190009818B90198D5
:1003E000B0F5A06FF1D16248006800F4003010B1A0
:1003F0000120009001E0002000900098012843D1E6
:100400005C48006840F010005A49086008460068DF
:1004100020F0030008600846006840F00200086011
:10042000534840685249486008464068486008465A
:10043000406840F4806048600846406820F47C10C2
:1004400048600846406840F48810486008460068E4
:1004500040F08070086000BF4548006800F0007000
:100460000028F9D04248406820F003004049486025
:100470000846406840F00200486000BF3C484068C1
:1004800000F00C000828F9D10CBD10B5FFF792FF61
:1004900010BD10B53648006840F0010034490860CE
:1004A00008464068344908403149486008460068B9
:1004B000324908402E4908600846006820F4802030
:1004C00008600846406820F4FE0048604FF41F00B2
:1004D0008860FFF7DAFF4FF000602949086010BD1F
:1004E00010B5002100200022214B5B6803F00C01B5
:1004F00021B1042906D0082928D107E0214B224C3C
:10050000236027E01F4B204C236023E0184B5B68DF
:1005100003F47010164B5B6803F48032022303EB84
:10052000904022B9194B4343174C23600DE0104B08
:100530005B6803F4003323B1144B4343124C236034
:1005400003E0104B4343104C236003E00D4B0E4C73
:10055000236000BF00BF064B5B68C3F303130C4C62
:10056000E15C094B1B68CB40074C236010BD0000C9
:1005700000100240002002400000FFF8FFFFF6FEDE
:1005800008ED00E000127A000000002000093D00A4
:10059000040000200948804709480047FEE7FEE7BD
:1005A000FEE7FEE7FEE7FEE7FEE7FEE7FEE7FEE723
:1005B00004480549054A064B7047000093040008AB
:1005C00031010008D0030020D01B0020D00F0020F4
:1005D000D00F002010B50446FE48844208D1012106
:1005E000C01401F0A9FA0021E01401F0A5FAC4E05A
:1005F000B4F1804F08D10121084601F0AAFA002188
:10060000012001F0A6FAB8E0F348844208D10121A4
:10061000022001F09EFA0021022001F09AFAACE0DB
:10062000EE48844208D10121042001F092FA002111
:10063000042001F08EFAA0E0E948844208D10121AB
:10064000082001F086FA0021082001F082FA94E0E7
:10065000E448844208D10121102001F07AFA0021F7
:10066000102001F076FA88E0DF48844208D10121A9
:10067000202001F06EFA0021202001F06AFA7CE0CF
:10068000DA48844208D10121401401F055FA0021D2
:10069000601401F051FA70E0D548844209D101217B
:1006A000C80401F049FA00214FF4002001F044FA97
:1006B00063E0D048844209D10121080501F03CFAE9
:1006C00000214FF4801001F037FA56E0CA48844206
:1006D00009D10121480501F02FFA00214FF4001043
:1006E00001F02AFA49E0C548844208D1012140209E
:1006F00001F02FFA0021402001F02BFA3DE0C04824
:10070000844208D10121802001F023FA00218020B9
:1007100001F01FFA31E0BB48844208D10121801565
:1007200001F017FA0021A01501F013FA25E0B648F0
:10073000844209D10121080401F0FEF900214FF49F
:10074000803001F0F9F918E0B048844209D1012164
:10075000480401F0F1F900214FF4003001F0ECF908
:100760000BE0AB48844208D10121880401F0E4F990
:1007700000214FF4802001F0DFF910BD0022028833
:10078000944B98420ED0994B98420BD0B0F1804FC9
:1007900008D0914B984205D0904B984202D0904B94
:1007A000984204D14FF68F731A404B881A438D4BF1
:1007B000984207D08C4B984204D04FF6FF431A4022
:1007C000CB881A4302808B8883850B880385814BF5
:1007D00098420BD0854B984208D08B4B984205D05D
:1007E0008A4B984202D08A4B984201D10B7A0386F9
:1007F00001238382704770B5002400220023058CFA
:100800004FF6FE7635400584028C8388048B4FF6C4
:100810008F752C40B51E2C400D882C43751E2A4028
:100820000D892A434D882A436A4DA8420BD06F4D4B
:10083000A84208D0744DA84205D0744DA84202D0F9
:10084000734DA84213D14FF6F7752A404D892A43BC
:100850004FF6FB752A408D882A434FF6FF652B40E3
:100860004FF6FF552B408D892B43CD892B43838039
:100870000483CD888586028470BD70B50024002273
:100880000023058C4FF6EF7635400584028C838873
:10089000048B48F6FF752C404FF6FF452C400D8821
:1008A0004FF6FF7606EA05252C434FF6DF752A4002
:1008B0000D8906EA05152A434D8806EA05152A43DF
:1008C000444DA84202D0494DA8421DD14FF67F7534
:1008D0002A404D894FF6FF7606EA05152A434FF662
:1008E000BF752A408D8806EA05152A434FF6FF3565
:1008F0002B404FF2FF752B408D8906EA85052B436F
:10090000CD8906EA85052B4383800483CD8805873E
:10091000028470BD70B5002400220023058C4FF6C0
:10092000FF6635400584028C8388848B4FF68F7573
:100930002C404FF6FC752C400D882C434FF6FF558C
:100940002A400D894FF6FF7606EA05252A434D8891
:1009500006EA05252A431F4DA84202D0234DA8428E
:100960001DD14FF2FF752A404D894FF6FF7606EAFA
:1009700005252A434FF6FF352A408D8806EA0525CE
:100980002A434EF6FF752B404DF6FF752B408D899F
:1009900006EA05152B43CD8906EA05152B4383800E
:1009A0008483CD888587028470BD70B500220023C2
:1009B0000024058C4EF6FF7635400584038C848830
:1009C000828B48F6FF752A404FF6FF452A400D8876
:1009D00020E00000002C014000040040000800401E
:1009E000000C0040001000400014004000340140A2
:1009F000004C0140005001400054014000180040EC
:100A0000001C004000200040004001400044014024
:100A1000004801404FF6FF7606EA05252A434DF6C9
:100A2000FF752B400D8906EA05352B434D8806EAF4
:100A300005352B43FA4DA84202D0FA4DA84208D101
:100A40004BF6FF752C408D894FF6FF7606EA85152B
:100A50002C4384808283CD88A0F84050038470BDED
:100A6000828B4FF2FF331A408283828B4FF6FF73E3
:100A700003EA01231A4382837047F0B50C461546FA
:100A8000002200210026078C4EF6FF7C07EA0C07A7
:100A90000784828B018C4FF6FF7707EA043640F615
:100AA000FF473A404FF6FF7707EA05273A434FF6EC
:100AB000FF7707EA03373A43D94FB8420ED0D94FF0
:100AC000B8420BD0B0F1804F08D0D74FB84205D014
:100AD000D64FB84202D0D64FB84206D14DF6FF7776
:100AE000394046F48057394305E047F6FF5739400F
:100AF00044F48057394382830184F0BD828B4FF6E2
:100B0000F3731A408283828B0A4382837047F0B565
:100B10000C461546002200210026078C4FF6FF6C7C
:100B200007EA0C070784828B018C4FF6FF7707EAF0
:100B300004264FF60C773A404FF6FF7707EA031783
:100B40002F433A43B64FB8420ED0B64FB8420BD0FF
:100B5000B0F1804F08D0B44FB84205D0B34FB8427F
:100B600002D0B34FB84206D14FF6FF57394046F492
:100B70008077394305E04FF2FF57394044F48077DE
:100B8000394382830184F0BD028B4FF2FF331A4058
:100B90000283028B4FF6FF7303EA01231A43028399
:100BA0007047F0B50C461546002200210026078C40
:100BB0004FF6EF7C07EA0C070784028B018C4FF697
:100BC000FF7707EA041640F6FF473A404FF6FF77F3
:100BD00007EA03373A434FF6FF7707EA05273A4318
:100BE0008F4FB8420ED08F4FB8420BD0B0F1804F2C
:100BF00008D08D4FB84205D08C4FB84202D08C4FF0
:100C0000B84206D14FF6DF77394046F01007394336
:100C100005E04FF65F77394044F01007394302830F
:100C20000184F0BD028B4FF6F3731A400283028BEE
:100C30000A4302837047F0B50C4615460022002196
:100C4000068C4FF6FE773E400684028B018C4FF6F1
:100C50000C7632407E1C06EA03162E433243704E59
:100C6000B0420ED06F4EB0420BD0B0F1804F08D0E2
:100C70006D4EB04205D06D4EB04202D06C4EB042C7
:100C800006D14FF6FD76314044F00106314305E0D0
:100C90004FF6F576314044F001063143028301847A
:100CA000F0BD70B505460C465D4885420ED05D48E6
:100CB00085420BD0B5F1804F08D05B48854205D006
:100CC0005A48854202D05A48854200D100E000BF10
:100CD000208850B92389A28861882846FFF7ABFF96
:100CE000E1882846FFF79EFF25E0208804280AD1E6
:100CF0002389A28861882846FFF753FFE1882846A8
:100D0000FFF742FF17E0208808280AD12389A2882C
:100D100061882846FFF7FBFEE1882846FFF7EEFED4
:100D200009E02389A28861882846FFF7A6FEE188AA
:100D30002846FFF795FE70BD2DE9F04105460C46AB
:100D400000260127608808B9022600E00026A08856
:100D5000012801D1022700E001272088A0B92389BA
:100D6000A28861882846FFF766FFE1882846FFF7DA
:100D700059FF23893A4631462846FFF712FFE1889A
:100D80002846FFF701FF13E02389A28861882846DF
:100D9000FFF707FFE1882846FFF7F6FE23893A466A
:100DA00031462846FFF747FFE1882846FFF73AFF1C
:100DB000BDE8F0810A884B881A438B881A43CB8898
:100DC0001A430B891A434B891A438B891A43A0F89B
:100DD000442070474FF6FF71818000210180C1805F
:100DE0004180017270470021018041808180C18073
:100DF000018141818181C181704700210180418051
:100E0000012181800021C180018170470021018082
:100E100041808180C18001814181818170470000D2
:100E2000002C014000340140000400400008004054
:100E3000000C004021B1028842F00102028004E06F
:100E400002884FF6FE731A400280704731B1B0F845
:100E5000442042F40042A0F8442005E0B0F84420C9
:100E6000C2F30E02A0F8442070471AB183890B43E5
:100E7000838102E083898B4383817047818270473D
:100E800041EA0203A0F8483070471AB183890B4346
:100E9000838102E083898B438381704701894FF608
:100EA000F8721140018170470A46002101894FF60E
:100EB0008F73194011430181704730B504460D46C8
:100EC00029462046FFF7F0FF208940F007002081E7
:100ED00030BD2DE9F04104460D4616461F46602DF3
:100EE00006D13B46012231462046FFF75AFE05E077
:100EF0003B46012231462046FFF79DFE294620460B
:100F0000FFF7D2FF208940F007002081BDE8F08183
:100F100030B50C4600210189C9B24FF6FF7505EACC
:100F20000325154325432943018130BD2DE9F041B7
:100F300005460E4617469846002443463A46314633
:100F40002846FFF7E5FF2C894FF6F870044044F07F
:100F500007044FF68F70044044F070042C81BDE804
:100F6000F081F0B504460D4616461F463B46324614
:100F700029462046FFF7CCFF208940F4804020819D
:100F8000F0BD0185828270470A46002101884FF634
:100F90008F731940114301807047F0B50C46154618
:100FA0001E460021002200230189028B038C4FF68C
:100FB000F877394021434FF6FC473A4040F2011799
:100FC0003A434FF6DD773B404FF6FF7707EA0617C7
:100FD0002F433B43018102830384F0BD0A46002175
:100FE000018B4FF68F7319401143018370470A46F6
:100FF0000021018B48F6FF7319404FF6FF7303EA97
:1010000002231943018370470A460021818B4FF662
:101010008F7319401143818370470A460021818BE9
:1010200048F6FF7319404FF6FF7303EA0223194392
:101030008183704721B1028842F08002028004E07F
:1010400002884FF67F731A400280704721B1828870
:1010500042F00402828004E082884FF6FB731A405B
:101060008280704721B1828842F00802828004E0C9
:1010700082884FF6F7731A408280704721B18288C8
:1010800042F00102828004E082884FF6FE731A402B
:10109000828070470A460021018B4FF6F773194092
:1010A0001143018370470A460021018B4FF2FF7301
:1010B00019404FF6FF7303EA022319430183704777
:1010C0000A460021818B4FF6F77319401143818343
:1010D00070470A460021818B4FF2FF7319404FF68B
:1010E000FF7303EA02231943818370470A460021F4
:1010F000018B4FF6FB7319401143018370470A4679
:101100000021018B4FF6FF3319404FF6FF7303EABE
:1011100002231943018370470A460021818B4FF651
:10112000FB7319401143818370470A460021818B6C
:101130004FF6FF3319404FF6FF7303EA02231943BA
:10114000818370470A460021018B4FF67F73194057
:101150001143018370470A460021018BC1F30E0140
:101160004FF6FF7303EA02231943018370470A46CF
:101170000021818B4FF67F731940114381837047A3
:101180000A460021818BC1F30E014FF6FF7303EA7B
:1011900002231943818370470A460021018C4FF6D0
:1011A000FD7319401143018470470A460021018CE8
:1011B0004FF6F77319401143018470470A46002126
:1011C000018C4FF6DF7319404FF6FF7303EA0213E9
:1011D0001943018470470A460021018C4FF67F7342
:1011E00019404FF6FF7303EA021319430184704755
:1011F0000A460021018C4FF6FF5319404FF6FF734A
:1012000003EA02231943018470470A460021018C36
:101210004FF2FF7319404FF6FF7303EA022319439D
:10122000018470470A460021018C4DF6FF73194076
:101230004FF6FF7303EA023319430184704730B558
:10124000002301248C40A3B2048C9C430484048CAE
:1012500002FA01F5ADB22C43048430BD30B5002351
:1012600004248C40A3B2048C9C430484048C02FAB2
:1012700001F5ADB22C43048430BD70B503460020A7
:1012800000241846183001258D40ACB21D8CA543B2
:101290001D8409B1082909D100EB6100056825F01A
:1012A000700505600568154305600EE00D1FC5F368
:1012B0004E052844056825F4E045056005684FF6AD
:1012C000FF7606EA02263543056070BD21B102882B
:1012D00042F00202028004E002884FF6FD731A40D9
:1012E0000280704721B1028842F00402028004E0CB
:1012F00002884FF6FB731A400280704721B1828842
:1013000042F08002828004E082884FF67F731A40A8
:101310008280704702884FF6F7731A400280028875
:101320000A430280704782884FF68F731A4082808A
:1013300082880A438280704702894FF6F8731A4008
:10134000028102890A430281704702894FF67F7346
:101350001A40028102890A430281704781847047E2
:101360008185704781867047018770478187704704
:10137000A0F84010704702884FF6FF431A400280E1
:1013800002880A43028070470146888E70470146F2
:10139000088F70470146888F70470146B1F84000BA
:1013A00070470146888C70470146088D7047024699
:1013B0000020138A0B400BB1012000E00020704791
:1013C000CA430282704730B5024600200023002441
:1013D000158A05EA0103958905EA010413B10CB1E8
:1013E000012000E0002030BDCA43028270470000A7
:1013F00031490143314A1160704770B50021002323
:101400000F22C47804B32D4C246804F4E064C4F5BE
:10141000E064210AC1F10403CA40447804FA03F1EC
:101420008478144021430901254C0678A15504789D
:1014300004F01F050124AC4005786D11AD0005F1E5
:10144000E025C5F8004109E0047804F01F050124F7
:10145000AC401C4D0678761145F8264070BD1A4AFE
:101460000A400243154B1B1F1A60704739B1134ADB
:10147000121D12680243114B1B1D1A6006E00F4A31
:10148000121D126882430D4B1B1D1A607047042801
:1014900008D14FF0E021096941F004014FF0E0224A
:1014A000116107E04FF0E021096921F004014FF0DC
:1014B000E0221161704700000000FA050CED00E029
:1014C00000E400E080E100E080FFFF1F10B504466B
:1014D000CC48844208D10121042000F02DFB0021DA
:1014E000042000F029FB46E0C748844208D10121CE
:1014F000082000F021FB0021082000F01DFB3AE04D
:10150000C248844208D10121102000F015FB0021BF
:10151000102000F011FB2EE0BD48844208D10121CB
:10152000202000F009FB0021202000F005FB22E034
:10153000B848844208D10121402000F0FDFA002182
:10154000402000F0F9FA16E0B348844208D10121A6
:10155000802000F0F1FA0021802000F0EDFA0AE08E
:10156000AE48844207D10121801500F0E5FA002140
:10157000A01500F0E1FA10BD10B50121084600F0F9
:10158000DBFA0021012000F0D7FA10BD2DE9F0416F
:10159000024600250026002000230024002791F8A1
:1015A00003C00CF00F0591F803C00CF0100CBCF157
:1015B000000F03D091F802C04CEA050591F800C075
:1015C000BCF1000F31D0146800202BE04FF0010C6B
:1015D0000CFA00F3B1F800C00CEA03069E4220D1D9
:1015E00083004FF00F0C0CFA03F7BC4305FA03FC21
:1015F0004CEA040491F803C0BCF1280F06D14FF067
:10160000010C0CFA00FCC2F814C00AE091F803C007
:10161000BCF1480F05D14FF0010C0CFA00FCC2F8E8
:1016200010C0401C0828D1D31460B1F800C0BCF130
:10163000FF0F34DD546800202EE000F1080C4FF05D
:10164000010808FA0CF3B1F800C00CEA03069E4248
:1016500021D183004FF00F0C0CFA03F7BC4305FABD
:1016600003FC4CEA040491F803C0BCF1280F05D137
:1016700000F1080C08FA0CF8C2F8148091F803C0C5
:10168000BCF1480F07D100F1080C4FF0010808FA2F
:101690000CF8C2F81080401C0828CED35460BDE876
:1016A000F0814FF6FF710180022181700421C17029
:1016B00070470246002093680B400BB1012000E008
:1016C000002070470146886880B2704702460020BB
:1016D000D3680B400BB1012000E0002070470146A9
:1016E000C86880B2704701617047416170470AB1B4
:1016F000016100E041617047C16070474FF4803282
:101700000A4382618161826182698269704702460F
:101710000020434B18684FF68073184040EA0210CF
:1017200008433F4B186070473E49C8617047F0B5A9
:101730000A46002300240021002500F00046B6F1EF
:10174000004F02D1364EF16901E0354E7168C0F3A9
:10175000034583B200F44016B6F5401F08D121F0CE
:1017600070612F4E766826F070662D4F7E6012E015
:1017700000F48016B6F5801F06D1032606FA05F49C
:10178000A14341F0706106E0460D360103FA06F60A
:10179000B14341F0706122B1460D360103FA06F6FD
:1017A000314300F00046B6F1004F02D11C4EF1610A
:1017B00001E01B4E7160F0BD30B500228B071C0F9D
:1017C0000F2303FA04F2164B08338C1053F824301D
:1017D0009343134C08348D1044F8253023468C1065
:1017E00053F824308C07240F00FA04F423430C4CE4
:1017F00008348D1044F8253030BD0A49DC310860CA
:101800007047000000080140000C0140001001403A
:101810000014014000180140001C0140002001405C
:101820000000014000002042DF48006840F0010055
:10183000DD49086008464068DC490840DA494860EC
:1018400008460068DA490840D74908600846006839
:1018500020F4802008600846406820F4FE004860BC
:101860004FF41F0088607047CF49096821F4803128
:10187000CD4A11601146096821F480211160B0F54C
:10188000803F03D0B0F5802F0ED106E0C64909682D
:1018900041F48031C44A116007E0C349096841F44A
:1018A000A021C14A116000E000BF00BF704710B521
:1018B00001460022002300204A11012A02D1BA4C1D
:1018C000236806E0022A02D1B74C236A01E0B64C35
:1018D000636A01F01F02012494401C400CB10120F6
:1018E00000E0002010BD38B5002000900024002545
:1018F00000BF3120FFF7DBFF05460098401C009039
:101900000098B0F5A06F01D0002DF2D03120FFF784
:10191000CEFF08B1012400E00024204638BD014676
:101920000020A14A106820F0F80040EAC1001060D1
:101930007047A04908607047024600209A4B5868DB
:1019400020F47C1042EA01031843974B586070471B
:1019500098490866704701460020934A506820F075
:1019600003000843506070478F48406800F00C0047
:101970007047014600208C4A506820F0F000084370
:101980005060704701460020874A506820F4E060AC
:1019900008435060704701460020834A506820F495
:1019A000605040EAC1005060704729B17E4A527AC7
:1019B00002437D4B5A7204E07B4A527A82437A4B4F
:1019C0005A7270477B49D831086070470146002041
:1019D000754A506820F44040084350607047002129
:1019E000714A20321170704A82F82010012802D00A
:1019F00004280AD104E001216B4A2032117005E06D
:101A00000521694A2032117000E000BF00BF704715
:101A10006949086070476449096A0143624A116272
:101A20007047654944390860704730B5002100228D
:101A3000002400235C4D6D6805F00C0121B10429E0
:101A400005D0082923D105E05C4D056022E05B4DFF
:101A500005601FE0544D6D6805F47012524D6D68BD
:101A600005F48034022505EB92421CB9544D5543D0
:101A700005600BE04C4D6D6805F400351DB1504D0F
:101A80005543056002E04D4D5543056002E04B4D66
:101A9000056000BF00BF444D6D6805F0F001090905
:101AA000484D6B5C0568DD4045603F4D6D6805F451
:101AB000E061090A434D6B5C4568DD4085603A4D45
:101AC0006D6805F46051C90A3E4D6B5C4568DD40A8
:101AD000C560354D6D6805F44041890B3A4D6B5C2E
:101AE000C568B5FBF3F5056130BD29B12E4A5269D1
:101AF00002432D4B5A6104E02B4A526982432A4B20
:101B00005A61704729B1284A92690243264B9A616B
:101B100004E0254A92698243234B9A61704729B1B8
:101B2000214AD2690243204BDA6104E01E4AD2699D
:101B300082431D4BDA61704729B11B4AD2680243C8
:101B4000194BDA6004E0184AD2688243164BDA6017
:101B5000704729B1144A12690243134B1A6104E019
:101B6000114A12698243104B1A6170471249403979
:101B7000086070470F49C86470470B49C8717047C7
:101B80000948406A40F08070074948627047014642
:101B90000020054A92680A400AB1012000E00020B6
:101BA0007047014988727047001002400000FFF83A
:101BB000FFFFF6FE000042428004424200127A001B
:101BC00000093D00140000202400002010B5044648
:101BD000FB48844209D101218803FFF7ADFF0021B2
:101BE0004FF48040FFF7A8FF32E0F648844209D165
:101BF00001214804FFF7ADFF00214FF40030FFF74B
:101C0000A8FF25E0F048844209D101218804FFF7AC
:101C1000A0FF00214FF48020FFF79BFF18E0EB4866
:101C2000844209D10121C804FFF793FF00214FF43A
:101C30000020FFF78EFF0BE0E548844208D1012128
:101C40000805FFF786FF00214FF48010FFF781FFA2
:101C500010BD2DE9F04786B005460E460024A24689
:101C600000BFA1460027B08900B100BF2F462C8AD3
:101C70004CF6FF700440F08804432C82AC894EF689
:101C8000F3100440B0883189084371890843044344
:101C9000AC81AC8A4FF6FF400440B0890443AC826B
:101CA00001A8FFF7C2FEC648874202D1DDF810A0A6
:101CB00001E0DDF80CA0A88900F4004040B10AEB77
:101CC000CA0000EB0A1031684900B0FBF1F807E0E8
:101CD0000AEBCA0000EB0A1031688900B0FBF1F88A
:101CE0006420B8FBF0F004012009642101FB108995
:101CF000A88900F4004040B1322000EBC900B0FBDD
:101D0000F1F000F00700044308E0322000EB091076
:101D10006421B0FBF1F000F00F0004432C8106B009
:101D2000BDE8F0874FF41651016000218180C18029
:101D300001810C21418100218181704710B502464B
:101D40000020108A4FF2FF0318400B884C88234371
:101D50008C882343CC8823431843108210BD002174
:101D6000018041808180C180704721B1828942F425
:101D70000052828104E082894DF6FF731A4082810D
:101D80007047F0B50346002400260025002040F6E9
:101D90006A17B94200D100BF1846C1F3421401F0DE
:101DA0001F06012707FA06F5012C01D10C3004E0CB
:101DB000022C01D1103000E014301AB107682F4313
:101DC000076002E00768AF430760F0BD1AB1838A7D
:101DD0000B43838202E0838A8B4383827047028AAB
:101DE0004FF6F0731A400282028A0A430282704759
:101DF00082894FF2FF731A40828182890A4382816D
:101E0000704721B1828942F00202828104E0828916
:101E10004FF6FD731A4082817047028A4FF6DF73D6
:101E20001A400282028A0A430282704721B1028A62
:101E300042F48042028204E0028A4BF6FF731A40A9
:101E400002827047C1F30802828070470146888889
:101E5000C0F308007047818941F00101818170471A
:101E6000028BD2B20283028B42EA012202837047C4
:101E7000028B02F47F420283028B0A430283704783
:101E800021B1828A42F02002828204E0828A4FF6E7
:101E9000DF731A408282704721B1828A42F01002B9
:101EA000828204E0828A4FF6EF731A408282704782
:101EB00021B1828A42F00802828204E0828A4FF6CF
:101EC000F7731A408282704721B1828942F400423E
:101ED000828103E08289C2F30E028281704721B1C0
:101EE000828A42F40062828204E0828A4FF2FF73A7
:101EF0001A4082827047828A4FF6FB731A408282B0
:101F0000828A0A438282704721B1828A42F00202A9
:101F1000828204E0828A4FF6FD731A408282704703
:101F200002460020B1F5007F00D100BF13880B40AE
:101F30000BB1012000E00020704701F40072B2F5FF
:101F4000007F00D100BFCA430280704770B50246CF
:101F5000002400230025002040F66A16B14200D17B
:101F600000BFC1F3421501F01F03012606FA03F377
:101F7000012D02D19689334006E0022D02D1168A46
:101F8000334001E0968A33400C12012606FA04F42D
:101F90001688344013B10CB1012000E0002070BD60
:101FA00010B50022002340F66A14A14200D100BF00
:101FB0000A1201249440A3B2DC43048010BD000047
:101FC000003801400044004000480040004C004000
:101FD000005000404FF0E020006920F004004FF076
:101FE000E02108610920274908700846007800EBC5
:101FF0004001C1EBC0104FF6FF7101EAC000224959
:1020000008807047002120F07F401E4A127842432A
:102010004FF0E0235A6100229A6101221A6100BF49
:102020004FF0E022116901F001021AB101F480328F
:10203000002AF5D000224FF0E0231A619A61704720
:10204000002100B9704720F07F400F4A12884243B8
:102050004FF0E0235A6100229A6101221A6100BF09
:102060004FF0E022116901F001021AB101F480324F
:10207000002AF5D000224FF0E0231A619A6100BFD8
:10208000E0E70000280000202A00002008B5012118
:102090000820FFF737FD10208DF80300C001ADF8D0
:1020A000000003208DF8020069469548FFF76EFA9C
:1020B00004208DF803000002ADF8000003208DF825
:1020C000020069468E48FFF761FA08BD10B5044664
:1020D00022464FF400618A48FFF709FB10BD38B56E
:1020E000044601210820FFF70DFD10208DF80300A4
:1020F0008001ADF8000003208DF802006946804899
:10210000FFF744FA22464FF480617D48FFF7EFFA6B
:1021100038BD08B501210820FFF7F4FC04208DF834
:1021200003000002ADF8000003208DF802006946AC
:102130007348FFF72BFA4FF480617148FFF7B9FA43
:1021400008BD10B50120FFF7C1FF3C20FFF75AFF83
:1021500010BD70B500240120FFF7C1FF0020FFF77C
:10216000B5FF0120FFF74EFFFFF7D3FF00BFFFF7DA
:10217000D0FF0028FBD10120FFF744FF002512E02B
:102180000120FFF7A3FF64000120FFF73BFF0020C1
:10219000FFF79CFFFFF7BDFF00B1641C0120FFF7B4
:1021A00031FF681CC5B2182DEADB0120FFF78EFF56
:1021B00084F400040120FFF725FF0020FFF786FFCD
:1021C0000120FFF71FFF204670BD2DE9F04186B0CA
:1021D0000026002422E0FFF7BCFF054616B9019552
:1021E000012615E000240CE001A850F82400A842C4
:1021F00005D9A84601A850F8245040F82480601C56
:10220000C4B2B442F0DB01A840F82650701CC6B23C
:10221000052E01DB049D0026601CC4B2052CDADB10
:102220002F46384606B0BDE8F0812DE9F04105465D
:10223000FFF78FFF0646AE4214D9FFF78AFF064626
:10224000701B04F0CBFD80462E480168404604F028
:10225000E3FC074604F0A2FD04462B48844202D169
:10226000002400E000242046BDE8F08110B5274896
:102270000068FFF7DAFF264908602648006838B989
:10228000084600682449086001202249086028E0C7
:10229000002015E0204951F820101D4A1268914293
:1022A0000DD91B4909681D4A11601B4951F82010BE
:1022B000174A116019490968174A42F82010401C52
:1022C000144909688842E5DB11490968124A114B33
:1022D0001B6842F823100F490968491C0D4A116018
:1022E00000BF0C480068052806DB0B48C068084999
:1022F00008600020074908600548006810BD00001C
:10230000000C01402C0000202A5BAA0030000020B5
:1023100034000020380000205C0000203C00002039
:1023200008B501210820FFF7EDFB14208DF803000C
:1023300003208DF802004FF48070ADF8000069466C
:10234000FB48FFF723F94FF40070ADF80000694631
:10235000F748FFF71BF901221102F548FFF7C7F90B
:1023600001225102F248FFF7C2F908BD10B501225F
:102370005102EF48FFF7BBF901221102EC48FFF7C9
:10238000B6F900224FF40071E948FFF7B0F90022D6
:102390004FF48071E648FFF7AAF910BD10B500228E
:1023A0004FF40071E248FFF7A2F901221102E04860
:1023B000FFF79DF901225102DD48FFF798F910BDA2
:1023C00070B50546002415E08020204100EA050292
:1023D0004FF40071D648FFF78AF901221102D44860
:1023E000FFF785F900224FF48071D148FFF77FF99C
:1023F000601CC4B2082CE7DB01221102CC48FFF7B5
:1024000076F900224FF48071C948FFF770F970BD6A
:1024100010B50446FFF7AAFF7820FFF7D1FF002090
:10242000FFF7CEFF2046FFF7CBFFFFF7B7FF10BD4A
:1024300010B50446FFF79AFF7820FFF7C1FF402050
:10244000FFF7BEFF2046FFF7BBFFFFF7A7FF10BD5A
:1024500070B505460C4645F0B000FFF7D9FF1021D6
:1024600041EA1410FFF7D4FF04F00F00FFF7D0FF8C
:1024700070BD70B500240EE000212046FFF7E8FF94
:10248000002504E00020FFF7D3FF681CC5B2802DB3
:10249000F8DB601CC4B2082CEEDB70BD2DE9F04106
:1024A00005460E461746721ED206110E6A1E5206C9
:1024B000100EFFF7CDFF002409E0A7F120019D4A8F
:1024C00002EB0111085DFFF7B3FF601CC4B2082CDA
:1024D000F3DB721ED206110E6A1E012303EB4202C9
:1024E000D0B2FFF7B5FF00240BE0A7F12001914A1D
:1024F00002EB011204F10801505CFFF799FF601C28
:10250000C4B2082CF1DBBDE8F0812DE9F0410746AB
:102510000E461546002407E02A5D3019C1B2384640
:10252000FFF7BCFF601CC4B2285D0028F4D1BDE8F1
:10253000F08110B50246012000E050430B1EA1F1CE
:102540000101FAD110BD2DE9F04780460E4617462D
:102550001D46002415E0281B411E0A20FFF7E9FF55
:10256000B7FBF0F00A21B0FBF1F201FB120000F121
:1025700030093019C1B24A464046FFF78FFF601C50
:10258000C4B2AC42E7DBBDE8F0872DE9F0478146F5
:10259000884615461E46002D06DB2B22414648463E
:1025A000FFF77CFF2F4605E02D2241464846FFF706
:1025B00075FF6F42002417E0301B411E0A20FFF711
:1025C000B8FFB7FBF0F00A21B0FBF1F201FB1200FB
:1025D00000F1300A08EB0400401CC1B252464846E4
:1025E000FFF75CFF601CC4B2B442E5DBBDE8F087D6
:1025F0002DE9F04781460E4690461F4600241DE017
:10260000381B411E1020FFF794FFB8FBF0F000F0DC
:102610000F050A2D08DA05F13000C2B23019C1B237
:102620004846FFF73BFF07E005F13700C2B230191B
:10263000C1B24846FFF732FF601CC4B2BC42DFDBC8
:10264000BDE8F0872DE9F04780460E4617461D4647
:10265000002412E0281B411E0220FFF76AFFB7FB8F
:10266000F0F000F0010000F130093019C1B24A4623
:102670004046FFF713FF601CC4B2AC42EADBBDE882
:10268000F08770B5002406E0002500E06D1CB5F56C
:102690007A7FFBD3641CB4F57A7FF5D3FFF740FE55
:1026A000AE20FFF7B5FED520FFF7B2FE8020FFF782
:1026B000AFFEA820FFF7ACFE3F20FFF7A9FED32016
:1026C000FFF7A6FE0020FFF7A3FE4020FFF7A0FEC5
:1026D000A120FFF79DFEC820FFF79AFEDA20FFF742
:1026E00097FE1220FFF794FE8120FFF791FECF2086
:1026F000FFF78EFED920FFF78BFEF120FFF788FE53
:10270000DB20FFF785FE3020FFF782FEA420FFF7D5
:102710007FFEA620FFF77CFE8D20FFF779FE1420B8
:10272000FFF776FEAF20FFF773FEFFF7A2FE70BD46
:10273000000C01408A70000800B589B00121022018
:10274000FFF7EDF901210820FFF7DCF918208DF8DB
:1027500023000220ADF8200003208DF8220008A9F4
:102760003D48FEF713FF3D48FEF798FB0020ADF80B
:102770001A00ADF8160044F61F60ADF818004720A7
:10278000ADF8140000208DF81C0005A93348FDF7B2
:10279000F5FF01A8FEF727FB6020ADF8040000203C
:1027A000ADF80E000120ADF806000020ADF80A00DB
:1027B00001A92A48FEF7F9F801212848FEF73AFB5B
:1027C00009B000BD2DE9F04104462549204604F03A
:1027D00023FA8046234904F015FB0746224904F0FA
:1027E000B9F9064604F0DAFA85B229461B48FEF725
:1027F000BFFDBDE8F08170B51C480078A8B9012084
:102800001A49087000240DE0194931F8140004F049
:10281000E5FA0546FFF7D6FF4FF47A70FFF710FC94
:10282000601CC4B2032CEFDB14E000200F490870D9
:1028300003240DE00E4931F8140004F0CFFA0546E8
:10284000FFF7C0FF4FF47A70FFF7FAFB601CC4B2C9
:10285000062CEFDB70BD0000000C014000040040BE
:10286000000034430000FA440000FA434200002014
:102870004400002010B586B0044601210420FFF773
:1028800041F901218803FFF73DF918208DF8170061
:102890004FF40070ADF8140003208DF8160005A960
:1028A0006B48FEF773FE04208DF817000002ADF8A8
:1028B000140003208DF8160005A96548FEF766FE92
:1028C00001940020ADF810000C20ADF80E0000209F
:1028D000ADF80C00ADF80A00ADF8080001A95D489C
:1028E000FFF7B7F901215B48FFF73FFA012240F2F9
:1028F00025515848FFF745FA25208DF800000120A2
:102900008DF8030000208DF8010002208DF80200F0
:102910006846FEF772FD06B010BD10B586B00446DD
:1029200001210420FFF7EEF801214804FFF7F7F832
:1029300018208DF817000420ADF8140003208DF83E
:10294000160005A94248FEF721FE04208DF8170065
:102950000820ADF8140003208DF8160005A93C48A6
:10296000FEF714FE01940020ADF810000C20ADF825
:102970000E000020ADF80C00ADF80A00ADF808001C
:1029800001A93548FFF765F901213348FFF7EDF953
:10299000012240F225513048FFF7F3F926208DF847
:1029A000000001208DF8030000208DF801008DF853
:1029B00002006846FEF721FD06B010BD2DE9F0418A
:1029C00007460C46154600260DE014F8011B384654
:1029D000FFF738FA00BF40213846FFF7A1FA002878
:1029E000F9D0701C86B2AE42EFDBBDE8F0810FB4C7
:1029F00030B5CBB0054601AC50A800904FF49471AF
:102A000001A8009B4F9A02F0B7FA002000900BE05B
:102A100014F8011B2846FFF715FA00BF402128468D
:102A2000FFF77EFA0028F9D020780028F0D14BB0CB
:102A300030BC5DF814FB10B540F225510548FFF796
:102A400085FA18B120210348FFF777FA10BD00007E
:102A500000080140003801400044004000250024E7
:102A60004FF4A060FEF7C4FCFFF7B4FA4FF4E13076
:102A7000FFF700FF4FF4E130FFF74FFFFFF75CFE79
:102A8000FFF704FBFFF7FDFD3AA13F48FFF7AFFF5B
:102A9000FFF79BFB3D4908600020FFF793FE3CA237
:102AA00001210320FFF731FD02F024F93BA20121AF
:102AB0000846FFF72AFD3EA201210846FFF725FD43
:102AC0003FA201210220FFF720FD3FA12E48FFF782
:102AD0008EFF03E04FF4FA70FFF7B2FA41A143A072
:102AE00002F0A9F80028F5D14CA12748FFF77FFF95
:102AF00003E04FF4FA70FFF7A3FA00F0B6F90028EC
:102B0000F7D1FFF7B6FC48A208210220FFF7FDFC31
:102B100000F0B3FA2DE0681C80B2054632281DDBB8
:102B2000FFF7A4FB4149086003230846052102681A
:102B30000220FFF708FD3D483DA10268404802F031
:102B400035FA3F491048FFF752FF3EA10E48FFF704
:102B50004EFF00F026FA002502F04EF8002002F0A9
:102B6000A7F8044614B1204600F05AFC0A20FFF7EB
:102B700067FAD0E720486172647761726520696EF8
:102B80006974204F4B0D0A000038014030000020CE
:102B90004E6574776F726B696E670000202020208D
:102BA00020202020202020202020202000000000A5
:102BB00020436F6E6E656374656420746F0000005F
:102BC0004F4E454E45540000436F6E6E6563742052
:102BD0004D51545473205365727665722E2E2E0D0E
:102BE0000A000000434F4E4E4543540041542B43CE
:102BF000495053544152543D22544350222C226D8B
:102C0000717474732E6865636C6F7564732E636F73
:102C10006D222C313838330D0A0000004E45545FC8
:102C20004F4B0D0A000000002020670050000020DC
:102C30007B22576569676874223A25647D0000002D
:102C4000700000204F6E654E65745F53656E64447E
:102C50006174610D0A000000F0B58BB005460026D6
:102C60000024284602F05DFBC7B20DB11C2F02DA2A
:102C700001200BB0F0BD06E0A85D01A98855002039
:102C8000A855701CC6B2BE42F6DB002001A98855CB
:102C90000026002455E001A8805D2B2810D008DC18
:102CA000202814D023282ED0252825D026283FD10F
:102CB00030E02F2812D03D2833D03F2838D114E0FF
:102CC0002819FDA102F04CFBE01CC4B236E0281923
:102CD000FAA102F045FBE01CC4B22FE02819F8A1CC
:102CE00002F03EFBE01CC4B228E02819F5A102F076
:102CF00037FBE01CC4B221E02819F3A102F030FB3D
:102D0000E01CC4B21AE02819F0A102F029FBE01C73
:102D1000C4B213E02819EEA102F022FBE01CC4B2F9
:102D20000CE02819EBA102F01BFBE01CC4B205E08B
:102D300001A8805D2855601CC4B200BF00BF701C94
:102D4000C6B2BE42A7DB0020285500BF91E72DE99F
:102D5000F04FC9B005460C4616461F460DF5A4783F
:102D600098E8000F0020489055B14CB1DA488642EF
:102D700006D32FB1B9F1000F02D0BAF1780F03DA00
:102D8000012049B0BDE8F08F402118A802F05BFB9C
:102D9000384602F0C6FA05903B4648AA402100900A
:102DA00018A800F061FF482106A802F04CFBBBF117
:102DB000000F09D0C9A03346CAA248218DE83100CE
:102DC00006A802F009F909E0C4A03346CBA24821C5
:102DD0008DE81101039506A802F0FEF8402128A80D
:102DE00002F031FB06A802F09CFA059018A802F048
:102DF00098FA049028A8009006AA18A8DDE9041300
:102E000000F0DEFD00204890402138A802F01BFBB6
:102E100028A802F086FA059028AB48AA4021009025
:102E200038A800F081FE38A8FFF716FFBBF1000FAD
:102E30000CD038A8A9A12B46B8A2CDE90046CDE90F
:102E400002105146484602F0C7F80CE038A8A3A18A
:102E50002B46C04ACDE901860094CDE903105146C6
:102E6000484602F0B9F800208BE730B5B3B0002037
:102E70002F903090319032900125A02107AAB6A35F
:102E8000CDE90032CDE90210B6A3C24AC2A1C5A065
:102E9000FFF75DFF07A8C0A3AFA2C5A10090D0486F
:102EA000FFF7A5FD2FA8002102910391CDE90410A1
:102EB000084601210B02A8A2CDE9001007A9B6A07F
:102EC00001F033F8002842D1309A91B22F9801F0E6
:102ED000D8FEFA2001F0ECFE0446002C33D0204648
:102EE00000F0EEFF02282ED1204601F083F90628DB
:102EF00023D2DFE800F003090E13181DB9A1B8486A
:102F0000FFF775FD00251DE0BBA1B548FFF76FFD7C
:102F100018E0C0A1B248FFF76AFD13E0C6A1B048AF
:102F2000FFF765FD0EE0CCA1AD48FFF760FD09E0BD
:102F3000D2A1AB48FFF75BFD04E0DBA1A848FFF797
:102F400056FD00BF00BF2FA800F072FF03E0DDA117
:102F5000A348FFF74CFD284633B030BD10B58CB008
:102F600004463021684602F06EFADFA1204602F0E6
:102F7000B4F93021684602F066FAE048E0A1026840
:102F8000684602F013F86946204602F0E9F9E2A12A
:102F9000204602F0E5F9204602F0C3F9C0B20CB0B9
:102FA00010BD30B5C5B00020419042904390449090
:102FB00000240025D9A18A48FFF719FD4FF480713C
:102FC00001A802F040FA01A8FFF7C8FF0446002C50
:102FD00026D041A8002322465FA100906EA001F0F8
:102FE000FAF9C8B908E001A8415D429A501C429024
:102FF00041988154681C05B2A542F4DB429A91B213
:10300000419801F03EFECDA17548429AFFF7EFFCD2
:1030100041A800F00DFF03E0CCA17148FFF7E7FCE9
:1030200045B030BD70B588B005460C460020049010
:1030300005900690079023462A46CCA16848FFF7E2
:10304000D6FC204602F06DF9064604A801210022B4
:1030500000923346CDE901210390224629460A20F9
:1030600001F0D7F838B9059A91B2049801F009FE39
:1030700004A800F0DDFE08B070BD00B595B00020DA
:10308000119012901390149003A8029032A042A3C2
:10309000BEA23821009003A801F09EFF03AAC0A1A0
:1030A0004F48FFF7A4FC11A8012302AA00210090B9
:1030B000142001F09AFA7FE12532420025323000D7
:1030C00025324600253346002532350025323300AF
:1030D00025323600253344009554415D73686131D3
:1030E0000000000025640A25730A70726F6475631E
:1030F00074732F25730A25730000000025640A25C8
:10310000730A70726F64756374732F25732F64650F
:1031100076696365732F25730A257300766572736C
:10312000696F6E3D2573267265733D70726F6475AD
:103130006374732525324625732665743D25642600
:103140006D6574686F643D2573267369676E3D25F0
:103150007300000010780008536572766F5F31319C
:103160003238000066566B33373463786634315832
:10317000657864314C342B784D592F4C61636E4225
:103180003958633956777670725A4E624930453DE8
:103190000000000000CF9D74684D3333334E4B3236
:1031A00038470000323031382D31302D33310000B6
:1031B0004F6E654E45545F4465764C696E6B0D0AE3
:1031C0004E414D453A2025732C0950524F49443AFF
:1031D0002025732C094B45593A25730D0A00000030
:1031E00000380140546970733A09C1ACBDD3B3C90A
:1031F000B9A60D0A000000005741524E3A09C1AC71
:10320000BDD3CAA7B0DCA3BAD0ADD2E9B4EDCEF33A
:103210000D0A00005741524E3A09C1ACBDD3CAA7AE
:10322000B0DCA3BAB7C7B7A8B5C4636C69656E74E0
:1032300069640D0A000000005741524E3A09C1ACC2
:10324000BDD3CAA7B0DCA3BAB7FECEF1C6F7CAA7F2
:10325000B0DC0D0A000000005741524E3A09C1ACE3
:10326000BDD3CAA7B0DCA3BAD3C3BBA7C3FBBBF211
:10327000C3DCC2EBB4EDCEF30D0A00005741524E51
:103280003A09C1ACBDD3CAA7B0DCA3BAB7C7B7A8C7
:10329000C1B4BDD328B1C8C8E7746F6B656EB7C73A
:1032A000B7A8290D0A0000004552523A09C1ACBD29
:1032B000D3CAA7B0DCA3BACEB4D6AAB4EDCEF30D70
:1032C0000A0000005741524E3A094D5154545F5084
:1032D00061636B6574436F6E6E65637420466169EC
:1032E0006C65640D0A0000007B226964223A313269
:1032F000332C226470223A7B000000005000002032
:10330000224D795F576569676874223A5B7B227644
:10331000223A25647D5D2C007D7D00005469707328
:103320003A094F6E654E65745F53656E644461740F
:10333000612D4D5154540D0A0000000053656E6418
:103340002025642042797465730D0A005741524E5E
:103350003A094544505F4E6577427566666572204E
:103360004661696C65640D0A000000005075626C6E
:1033700069736820546F7069633A2025732C204D5F
:1033800073673A2025730D0A0000000024737973D7
:103390002F25732F25732F636D642F2300000000EA
:1033A00053756273637269626520546F7069633A22
:1033B0002025730D0A00000038B9129A91B21198B5
:1033C00001F05FFC11A800F033FD15B000BD70B531
:1033D00086B004460D46002600200290039004901B
:1033E000059008E054F82620AFF24C016848FFF73A
:1033F000FEFA701CC6B2AE42F4DB02A82B4622468F
:1034000000210090142001F0F0F838B9039A91B22D
:10341000029801F036FC02A800F00AFD06B070BD6B
:103420002DE9F043A9B081460020289027902690EE
:10343000259024900027804600240025484600F06F
:103440003FFD0746032F04D0042F46D0092F5BD140
:103450004CE0504824A925AA28ABCDE900210290D0
:1034600026AA27A9484601F004FA8046B8F1000FC1
:1034700032D10026BDF894002899CDE90010BDF89E
:10348000983045A14248279AFFF7B1FA51A12798F1
:1034900001F011FF0646F6B12F21304601F0EFFE94
:1034A0000646761C2422314603A801F065FF002061
:1034B0008DF8300003A8AFF26031AFF2243348A298
:1034C000CDE9001050210DA801F086FD4BA10DA8FB
:1034D000FFF7A8FD00BF00BF00BF484601F0C9FAD2
:1034E00018B948A12A48FFF782FA10E0484601F0CF
:1034F000FBF820B94BA12648FFF779FA03E050A169
:103500002348FFF774FA02E04FF0FF3800BF00BF16
:1035100001F072FB08F1010010B929B0BDE8F08399
:103520003A21289801F0ABFE0446FCB1641C05E08A
:1035300014F8012B28466D1C21A90A542078302844
:1035400002DB20783928F3DD002021A9485521A885
:1035500001F088FE054641A1289801F0ACFE28B193
:10356000012D04D13FA10A48FFF741FA04E01DB93B
:103570003FA10748FFF73BFA0F2F01D0032F05D1DA
:10358000279801F0D2FC289801F0CFFC00BFC4E7D7
:103590000038014054000020746F7069633A2025A0
:1035A000732C20746F7069635F6C656E3A202564BC
:1035B0002C207061796C6F61643A2025732C207027
:1035C00061796C6F61645F6C656E3A2025640D0AE9
:1035D00000000000726571756573742F00000000B3
:1035E000247379732F25732F25732F636D642F72C6
:1035F0006573706F6E73652F257300006F6A626B61
:1036000000000000546970733A094D515454205021
:1036100075626C6973682053656E64204F4B0D0AA8
:1036200000000000546970733A094D5154542053FE
:103630007562736372696265204F4B0D0A0000006A
:10364000546970733A094D51545420537562736331
:1036500072696265204572720D0A00007265646CC1
:1036600065640000474F4F4F464646460D0A00002E
:10367000546970733A0941534441534441440D0A1B
:1036800000000000F0B50446142C06DA01EA020539
:1036900023EA010685EA060019E0282C04DA81EA0B
:1036A000020787EA030012E03C2C0ADA01EA02056D
:1036B00001EA030787EA050602EA030787EA06002C
:1036C00005E0502C03DA81EA020787EA0300F0BD27
:1036D0000146142901DAFE480AE0282901DAFD48EA
:1036E00006E03C2901DAFC4802E0502900DAFB48F8
:1036F0007047F0B5024601209040441EE54301EAC0
:10370000050020FA02F601EA0400C2F1200C00FADA
:103710000CF746EA07031846F0BDF0B50246C2F1C1
:10372000200C012000FA0CF0441EE54301EA0400DD
:1037300000FA02F601EA0500C2F1200C20FA0CF7AB
:1037400046EA07031846F0BD2DE9F04FDDB0074605
:103750008A4615460AF1080909F101094FEACA002B
:103760005B9048464FEAE97109EB91618E1148463A
:103770004FEAE97109EB91618911A9EB81115C9123
:103780005C98002800DD761C5C98C0F14000814404
:10379000D04604E0002007F8080008F10108B8EB63
:1037A000861FF7DB802007F80A000121C1EB861194
:1037B0005B9878545B98C0F307200221C1EB861117
:1037C00078545B98C0F307400321C1EB861178540D
:1037D0005B98000E0421C1EB86117854C0485690C6
:1037E000C0485790BE48C0435890BE48C043599007
:1037F000BD485A904FF00008A5E0002452E0102C7C
:1038000032D24FEA881000EB8400385C000601A930
:1038100041F824004FEA881000EB8400401C385C1B
:1038200051F824104FF4803202FB001001A941F836
:1038300024004FEA881000EB8400801C385C51F8AB
:103840002410121202FB001001A941F824004FEAD3
:10385000881000EB8400C01C385C51F82410084428
:1038600001A941F824001CE0502C1AD2E01E01AA44
:1038700052F82000A4F1080201AB53F82220504076
:10388000A4F10E0253F822205040A4F1100253F884
:10389000222080EA02010120FFF73FFF01A941F841
:1038A0002400641C502CAAD35698559057985490D5
:1038B00058985390599852905A98519000242AE061
:1038C00005205599FFF729FF83462046529B539ABE
:1038D0005499FFF7D7FE5844009051990098084436
:1038E00000902046FFF7F4FE00990844009001A8DC
:1038F00050F8241000980844009052985190539822
:1039000052901E205499FFF708FF539055985490F9
:1039100000985590641C502CD2D356995598084461
:10392000569057995498084457905899539808447A
:10393000589059995298084459905A995198084466
:103940005A9008F10108B045FFF657AF5698E87055
:103950005698000AA8705698000C68705698000E89
:1039600028705798E8715798000AA8715798000C6A
:1039700068715798000E28715898E8725898000A94
:10398000A8725898000C68725898000E28725998BE
:10399000E8735998000AA8735998000C68735998ED
:1039A000000E28735A98E8745A98000AA8745A9816
:1039B000000C68745A98000E28745DB0BDE8F08F52
:1039C0002DE9F04FADF58E5D07460E4692469846BE
:1039D0000DF58050D0F8E49140254FF0360B5C2176
:1039E000C0F8BC11002405E0002041F27C116944BC
:1039F0000855641C402CF7DBAE421FD0AE4210DDF0
:103A00004A4631463846FFF79FFE002406E019F883
:103A1000040041F27C1169440855641C142CF6DB47
:103A200016E0AE4214DA002405E0385D41F27C1164
:103A300069440855641CB442F7DB09E0002405E042
:103A4000385D41F27C1169440855641CAC42F7DBD7
:103A500000240AE041F27C106844005D80EA0B001B
:103A600041F23C1169440855641C402CF2DB0024EF
:103A700006E041F23C106844005D1FA90855641C33
:103A8000402CF6DB002406E01AF804101FAA04F10B
:103A900040001154641C4445F6DB08EB05014A461E
:103AA0001FA8FFF751FE00240DE041F27C1169448C
:103AB000095D0DF58050D0F8BC01414041F2FC0297
:103AC0006A441155641C402CEFDB002415E0000013
:103AD0009979825AA1EBD96EDCBC1B8FD6C162CA20
:103AE0000123456789ABCDEFF0E1D2C341F2FC0081
:103AF0006844005D0AA90855641C402CF6DB0024CC
:103B000006E019F804100AAA04F140001154641CDC
:103B1000142CF6DB4A4605F114010AA8FFF714FE3F
:103B20000DF58E5DBDE8F08F2DE9F04F0746894613
:103B3000099C00250026AC46A846AA4600211CB9CF
:103B400000201060BDE8F08F0320B4FBF0F04FF0D0
:103B5000030BB4FBFBFE0BFB1E4BBBF1000F02D0B3
:103B60004FF0010B01E04FF0000B00EB0B06B6F13C
:103B7000804F05D34FF0FF3010606FF02900E1E770
:103B8000B600701C814500D327B9701C10606FF01F
:103B90002900D7E70320B4FBF0F000EB4006002536
:103BA000394629E013F801CB13F8018B13F801AB68
:103BB00087484FEA9C0B10F80B0001F8010B4FEA05
:103BC0000C1000EB281000F03F00DFF804B21BF8E7
:103BD000000001F8010B4FEA880000EBAA1000F08A
:103BE0003F001BF8000001F8010B0AF03F001BF832
:103BF000000001F8010BED1CB542D3D3A5422DD234
:103C000013F801CB681CA04202D213F8010B00E0AC
:103C1000002080466E48CCF3850B10F80B0001F8AD
:103C2000010B4FEA0C1000EB281000F03F00DFF80A
:103C3000A0B11BF8000001F8010B681CA04207D2DC
:103C40003F2000EA88001BF8000001F8010B02E0A9
:103C50003D2001F8010B3D2001F8010BC81B10604D
:103C60000020087000BF6DE72DE9F0470746894640
:103C70009046DDF820C00021002200240026002507
:103C8000002004460246014645E0002601E0491CAA
:103C9000761C614502D2585C2028F8D0614500D1DD
:103CA0003BE0ACEB0100022807D3585C0D2804D19F
:103CB000481C185C0A2800D12CE0585C0A2800D166
:103CC00028E01EB16FF02B00BDE8F087585C3D285E
:103CD00006D1601C0446022802D96FF02B00F3E7DE
:103CE000585C7F2806DC585CDFF8E8A01AF8000072
:103CF0007F2802D16FF02B00E6E7585CDFF8D4A0F4
:103D00001AF80000402803DA14B16FF02B00DBE74B
:103D1000521C00BF491C6145B7D300BF1AB900202F
:103D2000C8F80000D0E7D00800EB40004FEA400A96
:103D300002F0070000EB40004000C01D0AEBD0027B
:103D4000121B0FB1914504D2C8F800206FF0290072
:103D5000BAE703240020064602463D4631E01878C3
:103D60000D2805D018780A2802D01878202800D10C
:103D700025E01878DFF85CA01AF80000402801D18F
:103D8000012000E00020241A1878DFF848A01AF873
:103D9000000066F39F100646501C024604280DD111
:103DA000002214B1300C05F8010B012C02D9300AA5
:103DB00005F8010B022C01D905F8016B00BF491E63
:103DC0005B1C0029CBD1E81BC8F8000000207BE772
:103DD0007A760008BA76000870B504460E460025CB
:103DE000206898B901202073304601F06FF82060F8
:103DF0002068E0B100206060A66003E00020216838
:103E000048556D1CA068A842F8D810E00220207325
:103E100003E00020216848556D1CA068A842F8D82E
:103E200000206060A068B04201D20020206070BD18
:103E300010B50446207B012802D1206801F075F8F6
:103E4000002020606060A060207310BD0246002347
:103E500001230DE002F07F000870D2092AB1087832
:103E600040F080000870491C01E0184670475B1C58
:103E7000042BEFDD4FF0FF30F8E7F0B504460D46B8
:103E80002646012300201060002114E0775C07F033
:103E90007F07106807FB03001060705C00F0800073
:103EA00008B9481CF0BDDB01B3F5001F02D36FF069
:103EB0000100F7E7491CA942E8DB4FF0FF30F1E7CA
:103EC000F8B50446FF2720780511012D01DB0E2DE2
:103ED00001DD3846F8BD032D24D1002000906A464C
:103EE0000421601CFFF7C9FF2044461C00980228EB
:103EF00003D3207800F0010008B1FF20EAE77078D2
:103F0000317840EA0120801C0099884201D9FF20C5
:103F1000E0E7F8A1B01C01F0CEF908B10F2700E0EE
:103F2000032700E02F463846D4E72DE9FF4F83B042
:103F300082468B469146159C0025002002900F2753
:103F40000190484601F0EDF90FFA80F8B9F1000F41
:103F500003D1012007B0BDE8F08F08F1020038441A
:103F600087B2109808B145F00205129878B145F073
:103F70000405129801F0D5F9C0B20290139801F02F
:103F8000D0F901460298001D0844384487B21198C0
:103F900020B1012804D0022808D104E000BF07E0C6
:103FA00045F00C0504E045F0140501E00220D1E7DE
:103FB00000BF149808B145F02405BAF1000F02D0F3
:103FC000BBF1000F01D10320C4E745F0C005504606
:103FD00001F0A7F90646584601F0A3F93044001D48
:103FE000384487B239462046FFF7F6FE206808B904
:103FF0000420AFE73946206801F003FA1021626817
:10400000501C606020688154D4E90023D118781FC7
:10401000FFF71CFF00B201900198002804DA204647
:10402000FFF706FF052095E7616801980844606086
:1040300000216268501C606020688154042162681D
:10404000501C6060206881544D216268501C606083
:104050002068815451216268501C6060206881543E
:1040600054216268501C6060206881546268501C52
:1040700060602068815404216268501C6060206880
:1040800081546168481C6060206845540698010AA4
:104090006268501C6060206881540698C1B26268F2
:1040A000501C606020688154C8F307216268501C6E
:1040B0006060206881546268501C6060206800F86D
:1040C0000280D4E9001288184246494601F0E1F81E
:1040D00060684044606005F00400B8B3002613989F
:1040E00008B986A01390129801F01BF986B2310A24
:1040F0006268501C6060206881546268501C606077
:1041000020688654D4E9001288183246129901F0CA
:10411000C0F8606830446060139801F002F986B21C
:10412000310A6268501C6060206881546268501CCB
:10413000606020688654D4E90012881832461399CA
:1041400001F0A7F860683044606000BF05F08000AF
:10415000C8B1504601F0E5F886B2310A6268501CD9
:104160006060206881546268501C606020688654DA
:10417000D4E9001288183246514601F08AF8606886
:104180003044606000BF05F04000C8B1584601F0FF
:10419000C8F886B2310A6268501C60602068815499
:1041A0006268501C606020688654D4E90012881848
:1041B0003246594601F06DF860683044606000BFD7
:1041C0000020C7E610B5044602212046FFF704FE92
:1041D000206808B9012010BDE0216268501C6060B1
:1041E0002068815400216268501C606020688154FE
:1041F0000020F0E701464878022801D001207047EE
:10420000887810B18878012801D1C878F7E7FF20B5
:10421000F5E72DE9FF4F83B0834617469946139C77
:10422000002500260020029001908046BBF1000F7F
:1042300003D1012007B0BDE8F08F00260AE0049802
:10424000805D232803D00498805D2B2801D10220B3
:10425000F0E7761C0498805D0028F0D148F0300823
:10426000119808B148F0010806EB0900851C109868
:1042700020B1012804D002280AD105E000BF09E0DE
:1042800048F00208AD1C05E048F00408AD1C01E050
:104290000320CFE700BF67B33878022821D14FF061
:1042A000000A00BF50460AF1010A385C7D28F9D1A6
:1042B000AAF1030A0AF1070002900298A9EB000A8A
:1042C000E81CA0EB0A012046FFF786FD206808B92C
:1042D0000420AFE7EA1CA2EB0A01206801F091F884
:1042E0001FE0691D2046FFF777FD206840B90420D4
:1042F000A0E70AE02463726571000000000000007E
:10430000691D206801F07DF80BE0691D2046FFF76C
:1043100063FD206808B904208CE7691D206801F05E
:1043200070F86168481C6060206800F80180D4E97A
:10433000000281182846FFF789FD019001980028A6
:1043400004DA2046FFF774FD052073E761680198E1
:1043500008446060C6F307216268501C60602068F2
:1043600081546268501C606020688654D4E9001251
:1043700088183246049900F08CFF60683044606011
:10438000109860B14FEA1B216268501C6060206881
:1043900081546268501C6060206800F802B0C7B1A8
:1043A000387802280BD1D4E9001288183946029ACD
:1043B00000F0E2FF616802980844606009E0D4E917
:1043C000001288184A46394600F0D6FF6068484413
:1043D000606000202EE72DE9F04190B004460D46C4
:1043E00016469846169F2346F7A2302104A800954A
:1043F00000F0F2FD01200021CDE9000133460A461C
:1044000004A9CDE902070A20FFF703FF18B1012034
:1044100010B0BDE8F0810020FAE72DE9F04F85B03B
:1044200080460D4691460120049000270026002476
:104430004FF0000A404600F074FF00F10D0B5846A3
:1044400000F044FD07461FB9049805B0BDE8F08FA1
:104450004246E3A1384600F0A9FD384600F061FF6E
:10446000C6B2F01D00EB050AAAEB050000F02EFD18
:10447000044624B9384600F058FD0498E5E70220C8
:10448000207000206070A67032463946E01C00F0B3
:1044900073FF290EF01C2154C5F30741301D215430
:1044A000C5F30721701D2154B01D255401200021A2
:1044B000CDE9000153462246CDA1CDE902090A20EB
:1044C000FFF7A7FE08B900200490384600F02DFD44
:1044D000204600F02AFD0498B7E72DE9F84380460E
:1044E0000C4615461E462F2108F1060000F0C7FEB7
:1044F00007460020009017B90120BDE8F8837F1C13
:104500006A46042108F10100FFF7B7FC252000F0FE
:10451000DDFC2060206808B90220EEE72521206834
:1045200000F06FFF24223946206800F025FF243771
:1045300000982C3830803188481C00F0C7FC286077
:10454000286820B9206800F0F0FC0320D5E7328805
:10455000511C286800F055FF32883946286800F061
:104560000BFF0020C9E72DE9FF5F07460D46904687
:10457000384600F0D6FE86B2284600F0D2FE1FFA7A
:1045800080FA4FF00009F01D00F0A0FC04461CB9B1
:10459000012004B0BDE8F09FF11D204600F031FF7E
:1045A0009CA0016821608088A08032463946204660
:1045B00000F06FFE284600F0B4FE83460120002183
:1045C00000915B462A46CDE90208019121460A2066
:1045D000FFF71FFE10B94FF0000901E04FF001098D
:1045E000204600F0A2FC4846D3E72DE9FF5F804655
:1045F000174699460E9C0026B246B3460025B8F1F0
:10460000000F03D1012004B0BDE8F09F0BE057F884
:10461000250008B90220F6E757F8250000F081FED2
:104620000644681CC5B24D45F1DB09EB4900801C0E
:1046300000EB060A0AF105012046FFF7CDFB2068D2
:1046400008B90320DFE782216268501C606020689F
:104650008154D4E9000281185046FFF7F7FB0FFAA6
:1046600080FBBBF1000F04DA2046FFF7E1FB0420DA
:10467000C9E76068584460604FEA18216268501CBE
:104680006060206881546268501C6060206800F897
:104690000280002524E057F8250000F042FE06467F
:1046A000C6F307216268501C60602068815462680C
:1046B000501C606020688654D4E90023D01857F855
:1046C0002510324600F0E5FD6068304460600198D6
:1046D000C1B26268501C606020688154681CC5B219
:1046E0004D45D8DB00208EE70146FF208A78A2B92D
:1046F000CA78142A11D10A7932B1012A05D0022AC6
:1047000004D0802A06D103E000BF00BF002003E0F0
:10471000012001E0022000BF00BF70472DE9F05FDB
:1047200080460F4691461C460026B246B3460025F9
:10473000B8F1000F02D10120BDE8F09F0BE057F85F
:10474000250008B90220F7E757F8250000F0E9FD39
:104750000644681CC5B24D45F1DB022000EB490060
:1047600000EB060A0AF105012046FFF735FB206839
:1047700008B90320E0E7A2216268501C606020684D
:104780008154D4E9000281185046FFF75FFB0FFA0D
:1047900080FBBBF1000F04DA2046FFF749FB042041
:1047A000CAE76068584460604FEA18216268501C8C
:1047B0006060206881546268501C6060206800F866
:1047C0000280002548E00000247379732F25732FA1
:1047D00025732F64702F706F73742F6A736F6E0060
:1047E0007B2264735F6964223A222573227D000074
:1047F000247379732F376255643932344931762FF7
:1048000054455354312F64702F706F73742F6A7333
:104810006F6E000024637273702F000057F825003C
:1048200000F07FFD0646C6F307216268501C6060F9
:10483000206881546268501C606020688654D4E906
:104840000023D01857F82510324600F022FD60688A
:1048500030446060681CC5B24D45DFDB00206BE76B
:10486000014601208A781AB9CA781E2A00D1002090
:1048700070472DE9FC5F81460D4614461E46DDE972
:104880000C8B99F8000000F00F0A002001900AF04C
:1048900008000090CAF341008BF8000001AA04212F
:1048A00009F10100FFF7E9FA4844471C0198022882
:1048B00002D30AF0010010B1FF20BDE8FC9F787818
:1048C000397840EA012020802088801C01998842A4
:1048D00001D9FF20F1E7AFF2E451B81C00F0EBFC86
:1048E00008B10F20E9E79BF8000020B101283DD076
:1048F000022877D13BE0009808B1FF20DDE721884E
:10490000481C00F0E3FA2860286808B9FF20D4E7C3
:104910002288511C286800F074FD2288B91C286880
:1049200000F02AFD0198801E2188401AA8F8000096
:10493000B8F80010481C00F0C9FA3060306820B99F
:10494000286800F0F2FAFF20B7E7B8F80020511C01
:10495000306800F056FDB8F80020B4F800C0BB1C69
:104960000CEB0301306800F007FD4FE000BF20882A
:10497000801C0199884201D9FF209EE72088C01C35
:10498000395C2088801C385C41EA00210E98018047
:104990000E9808B9FF2090E72188481C00F096FA8D
:1049A0002860286808B9FF2087E72288511C2868FA
:1049B00000F027FD2288B91C286800F0DDFC019872
:1049C000001F2188401AA8F80000B8F80010481C01
:1049D00000F07CFA3060306828B9286800F0A5FA49
:1049E000FF206AE710E0B8F80020511C306800F0A2
:1049F00008FDB8F80020B4F800C03B1D0CEB030123
:104A0000306800F0B9FC01E0FF2056E700BF2B2121
:104A1000284600F034FC20B92321284600F02FFC62
:104A200008B1FF2049E7002047E770B505460C466E
:104A300004212046FFF7D0F9206808B9012070BD95
:104A400040216268501C60602068815402216268C5
:104A5000501C60602068815429126268501C60609C
:104A6000206881546268501C606020688554002072
:104A7000E5E701464878022801D001207047887890
:104A800020B9C8780A2801D10020F7E70120F5E70E
:104A900070B505460C4604212046FFF79DF92068B5
:104AA00008B9012070BD50216268501C6060206808
:104AB000815402216268501C606020688154291270
:104AC0006268501C6060206881546268501C60609D
:104AD000206885540020E5E701464878022801D087
:104AE00001207047887820B9C8780A2801D10020B1
:104AF000F7E70120F5E770B505460C46042120468E
:104B0000FFF76AF9206808B9012070BD6221626868
:104B1000501C60602068815402216268501C6060F3
:104B20002068815429126268501C6060206881549A
:104B30006268501C6060206885540020E5E70246EA
:104B40005078022801D0012070479078B0EB112FE7
:104B500005D1D078CBB2984201D10020F4E70120F2
:104B6000F2E770B505460C4604212046FFF734F9FC
:104B7000206808B9012070BD70216268501C606017
:104B80002068815402216268501C60602068815452
:104B900029126268501C6060206881546268501C51
:104BA0006060206885540020E5E7014648780228C7
:104BB00001D001207047887820B9C8780A2801D12F
:104BC0000020F7E70120F5E710B504460221204652
:104BD000FFF702F9206808B9012010BDC021626802
:104BE000501C60602068815400216268501C606025
:104BF000206881540020F0E710B54FF40071804820
:104C000000F0FFFB00207F49088010BD7D48008830
:104C100008B9012070477B4800887B490988884291
:104C200003D1002077490880F4E776480088764968
:104C300008800120EEE72DE9F04104460D46C82624
:104C4000204600F06EFB87B23A4621466F48FDF7DA
:104C5000B5FE0FE0FFF7DAFF48B92946684800F0D3
:104C60002AFB20B1FFF7C8FF0020BDE8F0810A2031
:104C7000FDF7E6F9301EA6F10101CEB2EAD101201E
:104C8000F3E730B589B004460D46FFF7B5FF2A4675
:104C90005FA101A800F08AF961A101A8FFF7CBFF8D
:104CA00020B92A4621465948FDF788FE09B030BD93
:104CB00070B50546002400BFFFF7A8FF80B959A1D1
:104CC0004F4800F0F8FA044654B13A21204600F06B
:104CD000D6FA044614B1641C204670BD0020FCE7DF
:104CE0000520FDF7ADF9281EA5F101018DB2E3D134
:104CF00000BFF2E708B501210420FCF703FF1020F4
:104D00008DF803000120ADF8000003208DF80200AB
:104D100069464648FCF73AFC002201214348FCF76B
:104D2000E6FCFA20FDF78CF9012211463F48FCF71A
:104D3000DEFC4FF4FA70FDF783F9FFF75DFF3CA14D
:104D40003D48FDF754FE03E04FF4FA70FDF778F9A3
:104D50003AA13BA0FFF76FFF0028F5D13AA13648F2
:104D6000FDF745FE03E04FF4FA70FDF769F933A152
:104D700038A0FFF760FF0028F5D13AA12E48FDF7D3
:104D800036FE03E04FF4FA70FDF75AF92BA139A073
:104D9000FFF751FF0028F5D13AA12748FDF727FE7C
:104DA00003E04FF4FA70FDF74BF939A13AA0FFF791
:104DB00042FF0028F5D13FA11F48FDF718FE08BDAE
:104DC00010B540F225511148FDF7C0F8B8B10D48B3
:104DD0000088B0F5007F02D300200A4908800B4804
:104DE000001D0088C1B2074802880088401C054B9E
:104DF00018800348815420210448FDF79EF810BD17
:104E0000700100205600002058000020004400409F
:104E100041542B43495053454E443D25640D0A00EF
:104E20003E0000004950442C0000000000080140F2
:104E3000312E2041540D0A00003801404F4B000034
:104E400041540D0A00000000322E2043574D4F44BC
:104E5000450D0A0041542B43574D4F44453D310DFC
:104E60000A000000332E2041542B4357444843503E
:104E70000D0A000041542B4357444843503D312C08
:104E8000310D0A00342E2043574A41500D0A0000CC
:104E9000474F54204950000041542B43574A41503A
:104EA0003D22575744222C2231323334353637389D
:104EB000220D0A00352E204553503832363620490F
:104EC0006E6974204F4B0D0A0000000070B5064655
:104ED00000F0E4FA056806F10B0020F00704B44284
:104EE0009CBF002070BD2B466A68BAB11068A04212
:104EF00010D304F1080188423CBF5068586007D3C2
:104F00005168101941601168091B016058601460F4
:104F1000101D70BD13465268002AE7D1214628466D
:104F200000F0C8FA0028DED170BD70B50446051F38
:104F300000F0B4FA0068002C14BF446870BD002C67
:104F400018BFAC423CBF20466468F8D301680A1819
:104F5000AA4218BF456003D12A6805461144016082
:104F600028684119A1421CBF6C6070BD616869600E
:104F700021680844286070BD7CB51D4616460C00AB
:104F8000009001D02044401E074B7B442A466946CE
:104F90000190304600F083FB05461CB100206946B5
:104FA00000F090FB28467CBD410700000FB41CB503
:104FB000084B06AA7B4469460090059800F06FFBF9
:104FC00004460020694600F07DFB20461CBC5DF8CD
:104FD00014FB00000D0700000FB47CB50C0009AAFB
:104FE000009001D02044401E084B7B44694601904C
:104FF000089800F054FB05461CB10020694600F0FB
:1050000061FB28467CBC5DF814FB0000E106000053
:1050100070B50C460546012A05D02878800600D5D3
:10502000EA69002302E0012305E05B1C934202D2FF
:10503000E05C0028F9D1A869E618C01AA861286ABE
:1050400018442862284600F07FFA04E0D5E90121DF
:1050500014F8010B9047B442F8D3284600F08AFABE
:1050600070BD00002DE9F041064600241068752946
:10507000314616A510D000F08EFA002802DA404220
:1050800013A507E031688A0701D512A502E0490798
:1050900004D511A5012401E000F086FA00210A22BE
:1050A00006F1240709E0B0FBF2FCB0FBF2F302FBCF
:1050B0001C00303078541846491C0028F3D1234690
:1050C0002A463046BDE8F04100F077BA0000000003
:1050D0002D0000002B000000200000002DE9F05FF3
:1050E000894604464FF0000ADFF874B1FB44C0F86B
:1050F00020A02046E1688847002874D0252806D0E3
:10510000D4E901219047206A401C2062F1E7002683
:105110005F462046E16888472028054607DB312D99
:1051200005D2781910F8200C08B10643F1E7B00752
:1051300001D526F00406C4F81CA00027C4F818A066
:105140002A2D09D0284601F0D2FC38B304EB870899
:10515000303DC8F8185019E059F8041B204604EBFC
:1051600087029161E1688847012F054618D1E069FF
:10517000002820DA26F020061DE0D8F8180000EB01
:10518000800005EB40003038C8F818002046E16880
:105190008847054601F0ABFC0028EED1012F0AD06C
:1051A0002E2D08D12046E16888477F1C0546022F36
:1051B00046F02006C4DBA069002803DA404246F02E
:1051C0000106A061F00701D026F010066C2D0BD06F
:1051D000682D09D04C2D39D06A2D35D0742D35D09D
:1051E0007A2D33D016E038E0E1682F462046884714
:1051F000B842054609D16C2F26D04FF48060E16893
:10520000064320468847054604E06C2F1AD04FF429
:10521000807006430DB3A5F14100192802D820354E
:1052200046F400664A462946204626604E46FAF76E
:10523000B9FF80B101280BD0F61D26F0070000F160
:10524000080956E74020E4E78020D8E70020D6E7A9
:1052500006F104094DE7284652E7206ABDE8F09FB1
:105260004A26000070B5064600F01CF904680546A1
:1052700030460A22002100F067FB2C6070BD401E02
:10528000CAB210F8011F8A4202D00029F9D10020C9
:10529000704710B5431E13F8014F002CFBD105E0F9
:1052A00011F8014B002C03F8014B03D0521EF7D22A
:1052B0000021197010BD30B505460B462A4613F87B
:1052C000014B12F8010B08B1A042F8D01CB1002824
:1052D00002D06D1CF1E7284630BD40EA01030246CA
:1052E00030B59B0710D14FF0013400E008C208C967
:1052F0001D1B9D4315EAC41FF8D013F0FF0102F8EF
:10530000011B0DD01B0AF8E711F8013B002B02F836
:10531000013B05D011F8013B002B02F8013BF3D112
:1053200030BD10B5431C02E010F8011B71B18107BC
:10533000FAD14FF0013202C88C1A8C4314EAC21120
:10534000F9D0C01A0A0603D0C01E10BDC01A10BD85
:105350000A0401D0801E10BD0902FCD0401E10BD01
:10536000421E12F8013F002BFBD111F8013B002B2C
:1053700002F8013BF9D17047032A40F2308010F067
:10538000030C00F0158011F8013BBCF1020F6244E0
:1053900098BF11F801CB00F8013B38BF11F8013B71
:1053A000A2F1040298BF00F801CB38BF00F8013B1E
:1053B00011F0030300F00083083AC0F0088051F8B0
:1053C000043B083A51F804CBA0E80810F5E7121D99
:1053D0005CBF51F8043B40F8043BAFF30080D207B8
:1053E00024BF11F8013B11F801CB48BF11F8012B84
:1053F00024BF00F8013B00F801CB48BF00F8012BA7
:1054000070474FF000020429C0F0128010F0030C26
:1054100000F01B80CCF1040CBCF1020F18BF00F8A7
:10542000012BA8BF20F8022BA1EB0C0100F00DB856
:105430005FEAC17C24BF00F8012B00F8012B48BFB4
:1054400000F8012B70474FF0000200B51346944658
:105450009646203922BFA0E80C50A0E80C50B1F1CC
:105460002001BFF4F7AF090728BFA0E80C5048BFE0
:105470000CC05DF804EB890028BF40F8042B08BF7E
:10548000704748BF20F8022B11F0804F18BF00F87A
:10549000012B704770477047704700000048704705
:1054A0007803002000487047700300207047704761
:1054B0007047704738B504460A4600206946AFF386
:1054C0000080002808BF38BD02460099204600F041
:1054D000B1FA012038BD012000F09FBDF8B5AFF34F
:1054E0000080054600200C46102000BF0646A81983
:1054F000A0420DD9324669460020AFF30080070074
:1055000008BF00F08AFD0098A04218BF0546C419E4
:10551000FFF7C4FF05600746F01D20F0070046199D
:10552000284600F00AF8B44208BFF8BDA21B314675
:105530003868BDE8F84000F07DBA00210160C0E99C
:10554000011070471020704770B5044685690068E7
:10555000C10601D5302600E02026C00707D070BD67
:10556000D4E9012130469047206A401C20626D1E1C
:10557000F6D570BD70B5044685690078C00707D1BF
:1055800070BDD4E9012120209047206A401C206290
:105590006D1EF6D570BD09684A0501D540B2704749
:1055A000C905FCD500B2704709684A0501D5C0B2EB
:1055B0007047C905FCD580B270472DE9F0470D460C
:1055C00099469246044600F124080168880604D5ED
:1055D000E06921F01001216000E00120A84201DD16
:1055E000471B00E00027A1697A1902EB0900081A9D
:1055F000A0612078C00602D42046FFF7A5FF002650
:1056000008E0D4E901211AF806009047206A401CFE
:10561000761C20624E45F4DB2078C0060AD5204671
:10562000FFF792FF06E0D4E9012130209047206A7D
:10563000401C2062381EA7F10107F4DC07E0D4E922
:10564000012118F805009047206A401C2062281E9E
:10565000A5F10105F3DC2046FFF78CFF207800065A
:1056600002D50220BDE8F0870120FBE7116802683F
:10567000006A530501D508700AE0D30501D50880FA
:1056800006E0130603D5C217C1E9000200E0086076
:105690000120704701694A1C02610878704700B513
:1056A0008FB0CDE901310021059105497944CDE95B
:1056B000031011466846FFF711FD0FB000BD000052
:1056C000E5FFFFFF0A6802F8010B0A607047D1E9A5
:1056D00000239A4202D2531C0B601070704710B521
:1056E000436913B1AFF3008001E0FFF791FC0120A3
:1056F00010BD127800F124010A7000224A700122C4
:10570000EDE711684FF0FF32E9E700002DE9FF5F98
:1057100015468A460446DFF8AC80F8440027D8E9ED
:1057200000103E46CDE9001010E03AF816106A4627
:1057300002A800F052FC411C07D02178890603D54D
:10574000E269391891420DD80744761C207880060A
:1057500002D5E069B84205DDAE42E6DB3AF8160054
:105760000028E2D1A069C01BA0612046FFF7ECFE33
:10577000D8E90010CDE90010002017E03AF8181021
:105780006A4602A800F029FCB0F1FF3F81460BD029
:1057900000250DF1080B05E0D4E901211BF80500F7
:1057A00090476D1C4D45F7D308F10100B04280468B
:1057B000E4DB206A384420622046FFF7DBFEBDE8C8
:1057C000FF9F00002E2000002DE9F0418046D21DF1
:1057D00022F007020025D2E90002F52915A614D00F
:1057E000011E72F1000106DA0023D0EB030063EB27
:1057F000020211A608E0D8F800108B0701D50FA609
:1058000002E0490701D50EA601251146002408F142
:10581000240704E000F028F930323A55641C50EABD
:105820000102F7D12B46324621464046BDE8F04101
:10583000FFF7C3BE000000002D0000002B00000099
:105840002000000030B4002100F1240408E002F040
:105850000705D208303542EA4372DB086554491C1B
:1058600052EA0305F3D10468002310A2250707D5E7
:10587000A40600D421B1C46901230DA2641EC46131
:1058800030BCFFF79ABE10B5044621461068FFF7FA
:105890008BFE02462046BDE810400023D2E7D21D11
:1058A00022F00701D1E90023CCE70000000000004E
:1058B00030000000F0B40D460188090502D5214CE6
:1058C0007C4402E01F4C7C440E34002100F124068D
:1058D00008E002F00F071209E75D42EA03721B09B4
:1058E0007754491C52EA0307F3D1027800231207C8
:1058F00004D5702D06D009B1022311342246F0BC24
:10590000FFF75BBE01231034F8E770B504460D467F
:1059100021461068FFF748FE024629462046BDE8AA
:1059200070400023C6E7D21D22F00703D3E900230D
:10593000C0E70368126843F0200303600823C361D3
:105940000023B7E7901E00002DE9F04791460F466F
:1059500080460446002614F8015B2DB100F062F881
:105960000068405DC007F6D12B2D02D02D2D18D038
:10597000641E4A463946204600F0E0FA27B13968ED
:10598000A14201D1C7F800804FF0020471050BD588
:105990004042002803DDFFF785FD0460A007BDE855
:1059A000F08746F48066E4E70028F8DAFFF77AFD2E
:1059B00004606FF00040F2E710B5203AC0F00B80B1
:1059C000B1E81850203AA0E81850B1E81850A0E803
:1059D0001850BFF4F5AF5FEA027C24BFB1E818505D
:1059E000A0E8185044BF18C918C0BDE810405FEACD
:1059F000827C24BF51F8043B40F8043B08BF704749
:105A0000D20728BF31F8023B48BF11F8012B28BF4D
:105A100020F8023B48BF00F8012B70470048704750
:105A20007003002010B500F025FB001D10BD00BF65
:105A3000CD100000034640688C46002818BF8842FD
:105A40003CBF03464068F8D318681844884207D022
:105A50000CF1030020F00700001D411A521A014604
:105A6000081D0A60FFF761BA30B5B0F10A024FEACB
:105A7000900E71F100034EEA817EB0EB0E0061EBF7
:105A800091014FEA101E4EEA017E10EB0E0041EB31
:105A900011114FEA102E4EEA016E10EB0E0041EB91
:105AA00011214FEA104E4EEA014E10EB0E0041EB71
:105AB0001141401841F100014FEAD00040EA417025
:105AC0004FEAD10110EB80054FEA810444EA90745B
:105AD00044EB01046D1944EB0404521BA3414FF045
