:020000040800F2
:10000000400800203D020008AF380008B12C00086D
:10001000AB38000801240008914B000800000000E4
:10002000000000000000000000000000054500087E
:100030002D26000800000000A5430008F145000837
:10004000570200085702000857020008570200082C
:100050005702000857020008DD290008192A000885
:10006000570200085702000857020008570200080C
:1000700057020008570200085702000857020008FC
:1000800057020008570200085702000857020008EC
:1000900057020008570200085702000857020008DC
:1000A00057020008570200085702000857020008CC
:1000B000554600088D4700085702000857020008FF
:1000C00057020008570200085702000857020008AC
:1000D00057020008654900088149000857020008D6
:1000E00057020008570200085702000800F002F803
:1000F00000F094F80AA090E8000C82448344AAF12E
:100100000107DA4501D100F089F8AFF2090EBAE82B
:100110000F0013F0010F18BFFB1A43F0010318473B
:100120005C7900007C790000103A24BF78C878C15F
:10013000FAD8520724BF30C830C144BF04680C60ED
:10014000704700000023002400250026103A28BF35
:1001500078C1FBD8520728BF30C148BF0B60704739
:100160006E2900F0F584702900F0E781662907F018
:100170003B80652907F03880672907F035806129C1
:1001800007F0348003681B0A28BF41F08001692909
:1001900000F05881642900F05581752900F05281E2
:1001A0006F2900F0F287782900F0B381E92900F087
:1001B0008D87E42900F08A87F52900F08787EF29E9
:1001C00000F0EF87F82900F0B2810368DB0928BF4F
:1001D00041F08001632900F00E87732900F0138736
:1001E000E32901F05182F32901F056820020704783
:1001F0001FB59DE8030000F0FFFB01F019F80400B3
:100200000020002106F044F9401C6060002000211D
:1002100006F054F9E0601FBD10B510BD01F02AFBD7
:100220001146FFF7E5FF04F03DFF01F056FB03B474
:10023000FFF7F2FF03BC01F0C7FB0000094880474D
:1002400009480047FEE7FEE7FEE7FEE7FEE7FEE7B8
:10025000FEE7FEE7FEE7FEE704480549054A064BD0
:1002600070470000F5450008ED000008400200203E
:1002700040080020400400204004002070B50646DD
:1002800000F09AFB056806F10B0020F00704B44269
:100290009CBF002070BD2B466A68BAB11068A042AE
:1002A00010D304F1080188423CBF5068586007D35E
:1002B0005168101941601168091B01605860146091
:1002C000101D70BD13465268002AE7D1214628460A
:1002D00000F07EFB0028DED170BD70B50446051F1E
:1002E00000F06AFB0068002C14BF446870BD002C4D
:1002F00018BFAC423CBF20466468F8D301680A18B6
:10030000AA4218BF456003D12A680546114401601E
:1003100028684119A1421CBF6C6070BD61686960AA
:1003200021680844286070BD10B5044600F03CFB0D
:100330000068005DC00602D504F1200010BD204613
:1003400010BD00007CB51D4616460C00009001D083
:100350002044401E074B7B442A46694601903046A4
:1003600000F01FFE05461CB10020694600F02CFE7F
:1003700028467CBD790C00000FB41CB5084B06AABA
:100380007B4469460090059800F00BFE044600206F
:10039000694600F019FE20461CBC5DF814FB000005
:1003A000450C000070B5044685690068C10601D59A
:1003B000302600E02026C00707D070BDD4E9012117
:1003C00030469047206A401C20626D1EF6D570BDF5
:1003D00070B5044685690078C00707D170BDD4E9BF
:1003E000012120209047206A401C20626D1EF6D516
:1003F00070BD70B50C460546012A05D028788006E8
:1004000000D5EA69002302E0012305E05B1C93426A
:1004100002D2E05C0028F9D1A869E618C01AA861E8
:10042000286A184428622846FFF7BCFF04E0D5E993
:10043000012114F8010B9047B442F8D32846FFF786
:10044000C7FF70BD2DE9F0410646002410687529EC
:10045000314616A510D000F010FB002802DA404209
:1004600013A507E031688A0701D512A502E0490704
:1004700004D511A5012401E000F008FB00210A22A7
:1004800006F1240709E0B0FBF2FCB0FBF2F302FB3B
:100490001C00303078541846491C0028F3D12346FC
:1004A0002A463046BDE8F04100F0F9BA00000000ED
:1004B0002D0000002B00000020000000F0B40D46CD
:1004C0000188090502D5214C7C4402E01F4C7C4484
:1004D0000E34002100F1240608E002F00F07120993
:1004E000E75D42EA03721B097754491C52EA03078D
:1004F000F3D102780023120704D5702D06D009B17C
:10050000022311342246F0BC00F0C9BA0123103492
:10051000F8E770B504460D462146106800F0B6FABB
:10052000024629462046BDE870400023C6E7D21D9A
:1005300022F00703D3E90023C0E70368126843F001
:10054000200303600823C3610023B7E71074000091
:100550002DE9F05F894604464FF0000ADFF874B1D8
:10056000FB44C0F820A02046E1688847002874D0EA
:10057000252806D0D4E901219047206A401C20623A
:10058000F1E700265F462046E168884720280546B7
:1005900007DB312D05D2781910F8200C08B106437D
:1005A000F1E7B00701D526F00406C4F81CA0002727
:1005B000C4F818A02A2D09D0284604F05FFC38B3EF
:1005C00004EB8708303DC8F8185019E059F8041BAF
:1005D000204604EB87029161E1688847012F0546B8
:1005E00018D1E069002820DA26F020061DE0D8F8AE
:1005F000180000EB800005EB40003038C8F8180008
:100600002046E1688847054604F038FC0028EED112
:10061000012F0AD02E2D08D12046E16888477F1C83
:100620000546022F46F02006C4DBA069002803DA45
:10063000404246F00106A061F00701D026F0100606
:100640006C2D0BD0682D09D04C2D39D06A2D35D0AA
:10065000742D35D07A2D33D016E038E0E1682F467E
:1006600020468847B842054609D16C2F26D04FF462
:100670008060E168064320468847054604E06C2F09
:100680001AD04FF4807006430DB3A5F1410019282C
:1006900002D8203546F400664A46294620462660A0
:1006A0004E46FFF75DFD80B101280BD0F61D26F008
:1006B000070000F1080956E74020E4E78020D8E76A
:1006C0000020D6E706F104094DE7284652E7206AE4
:1006D000BDE8F09FA073000070B5064600F070F909
:1006E0000468054630460A22002100F065FD2C60B2
:1006F00070BD401ECAB210F8011F8A4202D0002904
:10070000F9D10020704710B5431E13F8014F002C9B
:10071000FBD105E011F8014B002C03F8014B03D08D
:10072000521EF7D20021197010BD30B505460B4698
:100730002A4613F8014B12F8010B08B1A042F8D079
:100740001CB1002802D06D1CF1E7284630BD10B561
:10075000431C02E010F8011B71B18107FAD14FF080
:10076000013202C88C1A8C4314EAC211F9D0C01AA3
:100770000A0603D0C01E10BDC01A10BD0A0401D065
:10078000801E10BD0902FCD0401E10BD40EA0103CE
:1007900070B59B072ED14FF00136042A2AD308C822
:1007A00010C99D1B9D43121F15EAC61517D0D8B25C
:1007B000E1B2401A50EA056110D198B2A1B2401AD4
:1007C00050EA05410AD123F07F4024F07F41401ACE
:1007D00050EA052102D1180EA0EB146070BDA342AF
:1007E000DBD018BA21BA884201D9012070BD4FF080
:1007F000FF3070BD0AB9002070BD10F8013B11F840
:10080000014B63B1A3420AD1521E08D010F8013B3C
:1008100011F8014B1BB1A34201D1521EEDD1181B9F
:1008200070BD032A40F2308010F0030C00F01580F8
:1008300011F8013BBCF1020F624498BF11F801CBE3
:1008400000F8013B38BF11F8013BA2F1040298BF48
:1008500000F801CB38BF00F8013B11F0030300F0B2
:100860002580083AC0F0088051F8043B083A51F856
:1008700004CBA0E80810F5E7121D5CBF51F8043B5B
:1008800040F8043BAFF30080D20724BF11F8013BCE
:1008900011F801CB48BF11F8012B24BF00F8013B30
:1008A00000F801CB48BF00F8012B704710B5203A83
:1008B000C0F00B80B1E81850203AA0E81850B1E819
:1008C0001850A0E81850BFF4F5AF5FEA027C24BFCF
:1008D000B1E81850A0E8185044BF18C918C0BDE8C6
:1008E00010405FEA827C24BF51F8043B40F8043B8F
:1008F00008BF7047D20728BF31F8023B48BF11F844
:10090000012B28BF20F8023B48BF00F8012B70479D
:100910004FF000020429C0F0128010F0030C00F028
:100920001B80CCF1040CBCF1020F18BF00F8012BA6
:10093000A8BF20F8022BA1EB0C0100F00DB85FEA74
:10094000C17C24BF00F8012B00F8012B48BF00F840
:10095000012B70474FF0000200B5134694469646AF
:10096000203922BFA0E80C50A0E80C50B1F12001C2
:10097000BFF4F7AF090728BFA0E80C5048BF0CC070
:100980005DF804EB890028BF40F8042B08BF7047CE
:1009900048BF20F8022B11F0804F18BF00F8012B40
:1009A000704770477047704710B500F041FC001D5C
:1009B00010BD00BFDD5A000000487047E401002070
:1009C00000487047DC01002070477047704770474F
:1009D00038B504460A4600206946AFF30080002877
:1009E00008BF38BD02460099204600F025FC0120D2
:1009F00038BD012000F036BFF8B5AFF300800546E2
:100A000000200C46102000BF0646A819A0420DD9B0
:100A1000324669460020AFF30080070008BF00F0AF
:100A200021FF0098A04218BF0546C419FFF7C4FF74
:100A300005600746F01D20F007004619284600F023
:100A40000AF8B44208BFF8BDA21B31463868BDE8B9
:100A5000F84000F0F1BB00210160C0E901107047CF
:100A60001020704710B5FFF7ABFF006810BD10B540
:100A70000446FFF7A5FF046010BD09684A0501D5CB
:100A800040B27047C905FCD500B2704709684A05F5
:100A900001D5C0B27047C905FCD580B270472DE9B9
:100AA000F0470D4699469246044600F12408016835
:100AB000880604D5E06921F01001216000E00120E2
:100AC000A84201DD471B00E00027A1697A1902EB6B
:100AD0000900081AA0612078C00602D42046FFF75A
:100AE00061FC002608E0D4E901211AF806009047CD
:100AF000206A401C761C20624E45F4DB2078C0063C
:100B00000AD52046FFF74EFC06E0D4E9012130204B
:100B10009047206A401C2062381EA7F10107F4DCD0
:100B200007E0D4E9012118F805009047206A401C2D
:100B30002062281EA5F10105F3DC2046FFF748FCE2
:100B40002078000602D50220BDE8F0870120FBE7EF
:100B500011680268006A530501D508700AE0D305E0
:100B600001D5088006E0130603D5C217C1E90002CB
:100B700000E008600120704770472DE9FF4F0C46E8
:100B80001E464FF0FF378BB0D2E90001DDF86080E0
:100B90000A908A46C1F30A5505B93D460021084628
:100BA0004FF00000BAF1000F00F4400005DA00EB4E
:100BB00080004FF4400101EA50004FEA9059B9F12A
:100BC000010F00DDB9460A9850EA4A000ED044F6FB
:100BD0001050A5F2FF3545432F14B8F1000F1ED079
:100BE0007542291E1EDDC9F100021CE0B8F1010F9B
:100BF0004FF0000001D0302103E0F24305E0215422
:100C0000401CB042FBDB30460022002121540B99EE
:100C1000C1F80880C1E900200FB0BDE8F08FBD1B0E
:100C20006D1CDEE74A4600DA694206A800F088FD3E
:100C300006AB93E8070003AB83E8070050460A9928
:100C400000F0E8FE8DE80700A0F500501F38009086
:100C50000398002D0ADD42F21F014A460844002392
:100C600003A90390684601F051F909E0A0F500508E
:100C70004A461F38002303A90390684601F05BF938
:100C80008DE807000004000C03D04FF0FF3041084E
:100C900000E01046B8F1000F03D000220092154684
:100CA0001EE0751E05D400F0E1FA303262556D1E6B
:100CB000F9D5B3460122084302D000227F1C04E08C
:100CC0002078302801D100227F1E002A099784D085
:100CD0001DE0112D07DA00F0C9FA303262556D1CA3
:100CE00050EA0102F5D1084302D00098C8B10EE0E5
:100CF0000021681E05E0235C625C63542254401EA0
:100D0000491C8142F7DBAB46A81B401E099000201E
:100D100004F80B000B98099AC0F80880C0E9002B72
:100D20007AE711264FF0000857E72DE9F04F884683
:100D30000446D21D22F0070191B0D1E90001CDE9AE
:100D40000A0104F012F802460B98C00F01D02D20C2
:100D500007E02068810701D52B2002E0202101EA6D
:100D6000C000032A099001D0072A05DB034641464B
:100D7000204600F03FFC0BE12078800601D5E069B9
:100D800000E00620B8F1650F814606D0B8F1660F85
:100D900018D0B8F1670F70D131E00020B9F1110F10
:100DA000009001DB112301E009F101030AAA01A966
:100DB0000CA8FFF7E2FEDDE90C70002609F1010541
:100DC000834647E001204B4600904FF000470AAAB7
:100DD00001A90CA8FFF7D1FEDDE90DB00C995D4625
:100DE000002610B909F101000D18B9EB050003D474
:100DF000C0F1FF3609F10105A5EB09002BE0B9F1BF
:100E0000010F01DA4FF001090020B9F1110F009034
:100E1000484601DD112300E003460AAA01A90CA8F7
:100E2000FFF7ABFEDDE90C704D46002683462078C7
:100E300000070AD4AB4500DA5D4601A8012D04DDA8
:100E4000411911F8011C302907D04F4502DA17F17A
:100E5000040F04DA012082460FE06D1EEEE7002F3A
:100E600002DCED1B3E4403E0781CA84200DD7D1C43
:100E7000B81B00F1010A4FF000472078000703D4A7
:100E8000AA4501DB4FF0FF3A0021B7F1004F0DF109
:100E900043088DF8431024D002202B23002F01DAC1
:100EA0007F422D230A21021EA0F1010000DC5FB168
:100EB00097FBF1FC97FBF1F201FB1C7C17460CF150
:100EC000300C08F801CDEEE7A8F10100037021888D
:100ED000090501D5452100E06521A0F1010800F8D0
:100EE000011C09980FA9A1EB0807FF1D00B1012003
:100EF000411901EBEA70A1693844081A401EA0614B
:100F00002078C00602D42046FFF74CFA099828B191
:100F1000D4E901219047206A401C20622078C00655
:100F200022D52046FFF73EFA1EE0002E04DBB34533
:100F300002DD01A8805D00E03020D4E90121904766
:100F4000206A401C2062761CAAF101005FEA000AB8
:100F50000AD100F06DF9C0680168405CD4E9012154
:100F60009047206A401C2062281EA5F10105DCDCA8
:100F700007E0D4E9012118F8010B9047206A401CD2
:100F80002062381EA7F10107F3DC2046FFF720FAA4
:100F9000032011B041E6000001694A1C0261087893
:100FA000704700B58FB0CDE90131002105910549A9
:100FB0007944CDE9031011466846FFF7C9FA0FB02E
:100FC00000BD0000E5FFFFFF0A6802F8010B0A60A0
:100FD0007047D1E900239A4202D2531C0B60107073
:100FE000704710B5436913B1AFF3008001E0FFF71C
:100FF00000FA012010BD127800F124010A700022CD
:101000004A700122EDE711684FF0FF32E9E7000076
:101010002DE9FF5F15468A460446DFF8AC80F844A8
:101020000027D8E900103E46CDE9001010E03AF85C
:1010300016106A4602A800F0F5FB411C07D0217883
:10104000890603D5E269391891420DD80744761C08
:101050002078800602D5E069B84205DDAE42E6DBC5
:101060003AF816000028E2D1A069C01BA061204612
:10107000FFF798F9D8E90010CDE90010002017E03B
:101080003AF818106A4602A800F0CCFBB0F1FF3F16
:1010900081460BD000250DF1080B05E0D4E90121B4
:1010A0001BF8050090476D1C4D45F7D308F1010072
:1010B000B0428046E4DB206A384420622046FFF7D5
:1010C00087F9BDE8FF9F00007E6900002DE9F0412F
:1010D0008046D21D22F007020025D2E90002F52940
:1010E00015A614D0011E72F1000106DA0023D0EB20
:1010F000030063EB020211A608E0D8F800108B078A
:1011000001D50FA602E0490701D50EA6012511461B
:10111000002408F1240704E000F0A8F830323A5522
:10112000641C50EA0102F7D12B4632462146404664
:10113000BDE8F041FFF7B3BC000000002D00000047
:101140002B0000002000000030B4002100F1240436
:1011500008E002F00705D208303542EA4372DB08A6
:101160006554491C52EA0305F3D10468002310A218
:10117000250707D5A40600D421B1C46901230DA217
:10118000641EC46130BCFFF78ABC10B5044621461A
:101190001068FFF77BFC02462046BDE810400023A4
:1011A000D2E7D21D22F00701D1E90023CCE70000ED
:1011B00000000000300000002DE9F04791460F4686
:1011C00080460446002614F8015B2DB1FFF7ECFBC6
:1011D0000068405DC007F6D12B2D02D02D2D18D010
:1011E000641E4A463946204600F05AFA27B139684B
:1011F000A14201D1C7F800804FF0020471050BD560
:101200004042002803DDFFF7DBFB0460A007BDE8D8
:10121000F08746F48066E4E70028F8DAFFF7D0FBB1
:1012200004606FF00040F2E700487047DC010020E6
:1012300000487047FC010020034640688C460028A7
:1012400018BF88423CBF03464068F8D3186818446A
:10125000884207D00CF1030020F00700001D411A5E
:10126000521A0146081D0A60FFF737B830B5B0F1D1
:101270000A024FEA900E71F100034EEA817EB0EB54
:101280000E0061EB91014FEA101E4EEA017E10EB59
:101290000E0041EB11114FEA102E4EEA016E10EBD9
:1012A0000E0041EB11214FEA104E4EEA014E10EBB9
:1012B0000E0041EB1141401841F100014FEAD0000E
:1012C00040EA41704FEAD10110EB80054FEA8104FA
:1012D00044EA907444EB01046D1944EB0404521B7E
:1012E000A3414FF0000348BF0A3200D530BD401C77
:1012F00041F1000130BD00002DE9F04F04460D46DC
:10130000D21D22F0070089B0D0E90097484639463F
:1013100003F02BFD0246F80F01D02D2307E02068D3
:10132000810701D52B2302E0202101EAC0038DF8BB
:1013300020300BB1012000E00020032A824601D0BA
:10134000072A04DB2946204600F054F93FE12078C3
:10135000800601D40D2500E0E569C7F30A560D2D7E
:1013600049DA00214FEA175B08464FF00000002FD2
:1013700000F4400007DA00EB80004FF4400100EB7E
:10138000D07001EA60008115012901DD4FF0FF31C5
:1013900000224FEA850CBCF1180F06D31346ACF1BE
:1013A00018004FF08052C24003E04FF4801323FA3C
:1013B0000CF30CF10C0CBCF1200F04D3ACF1200C9D
:1013C00009FA0CF001E007FA0CF000294FF0004890
:1013D00001DD18B90FE00ED140450CD319EB02091D
:1013E0005F4121B9404502D19F4329EA0209BBEB85
:1013F000175F00D0761C2088000502D57B48784412
:1014000002E07A487844193808AA302302F80A30F2
:10141000037C0AF10101002E0AF1020A53546A46C4
:1014200002DC4FF0300101E04FF031014FF00108D4
:101430008DF8001002D0A6F2FF3603E059EA47010A
:1014400000D06B4E002D02DC2178090704D54FF047
:1014500002082E218DF80110C44600210BE0C7F3CD
:1014600003433F01C35C491C6D1E02F80830052987
:1014700008F1010801DA002DF1DC00210CE000EB9D
:101480001973491C1B786D1E082902F808304FEAB1
:10149000091908F1010801DA002DF0DC21688B063A
:1014A00002D516E0A8F10108E04505DD02EB0803CE
:1014B00013F8013C302BF5D0B8F1000F09DD02EB39
:1014C000080313F8013C2E2B03D1090701D4A8F11E
:1014D0000108002D05DD3E2102F808106D1E08F1FF
:1014E0000108407C002E02F8080008F1010804DA27
:1014F0002D20764202F8080002E02B2002F80800B6
:101500000A214FF47A70864208F101080BDB96FB42
:10151000F0F3303302F8083096FBF0F308F10108DD
:1015200000FB136601E0642E0CDB642096FBF0F3F5
:10153000303302F8083096FBF0F308F1010800FBA5
:10154000136601E00A2E06DB96FBF1F0303002F85C
:10155000080008F1010896FBF1F001FB1060303043
:1015600002F80800A16908F1010808EB050202EB86
:101570000A00081AA0612078C00602D42046FEF7AF
:1015800011FF216A08AE01EB0A00206204E0D4E9F1
:10159000012116F8010B9047BAF1010AF7D2207821
:1015A000C00602D52046FEF7FDFE6E4609E016F89D
:1015B000010B3E280FD0D4E901219047206A401C3E
:1015C0002062B8F10108F2D22046FEF701FF09B00F
:1015D0000320BDE8F08F206A2844206203E0D4E9AC
:1015E0000121302090476D1EEBD3F8E7C165000064
:1015F00002FCFFFF2DE9F0411F4604460326016867
:10160000072A01F4006004DB08B116A505E016A561
:1016100003E008B115A500E015A521F01000206039
:10162000A069C01EA0610FB1401EA0612046FEF758
:10163000B9FE4FB1D4E9012138469047206A401CD9
:101640002062C01C206206E0206AFAE7D4E901218A
:1016500015F8010B9047761EF8D22046FEF7B8FE2B
:10166000BDE8F0814E414E006E616E00494E46006D
:10167000696E660010B5436913B1AFF3008001E0F5
:10168000FFF7C6FC012010BD128800F124018284FE
:101690000022C2840122EDE711684FF0FF32E9E732
:1016A0002DE9F05F824615468B4600270AF10104BA
:1016B000B9460078302801D09DB113E014F8010B31
:1016C0000127782803D0582801D045B10AE00DB190
:1016D000102D07D1002714F8010B102502E0082572
:1016E00000E00A250026B0460EE005FB080005FBD9
:1016F00006F101271FFA80F801EB1046B6F5803F8E
:1017000000D3B94614F8010B294600F0D8F8002898
:10171000EBDABBF1000F05D00FB1641E00E05446B8
:10172000CBF80040B9F1000F06D0FFF749F90221CC
:101730000160C81EBDE8F09F48EA0640FAE70000D5
:101740002DE9F047814616468AB0354878440DC8E1
:101750008DE80D0032487844801C03AC0DC884E845
:101760000D0041F69B300844372190FBF1F290FBCD
:10177000F1F5A5F1800501FB12041B3C02D5644282
:10178000012000E00020DFF898A080460027FA44FE
:10179000AAF1BE0A0EE0E0070AD03246684607EB1F
:1017A000470101230AEB810100F0C5FB8DE807002A
:1017B00064107F1C002CEED1194F7F44AE3F19E01E
:1017C000E80715D007EB04100DF1180A90E80E0099
:1017D0008AE80E00C068F04201D19819089032469C
:1017E000012306A903A800F0A6FB03AB83E80700CA
:1017F0006D10641C002DE3D14FF0010332466946A1
:10180000B8F1000F03A802D000F080FB01E000F067
:1018100092FBC9E90001C9F808200AB0BDE8F087C9
:101820000463000070B516460C460546FFF7BCF889
:10183000036893F80101012806D0FF2C0FD8185D2A
:1018400068B101202C7070BDD3F8070132462146E3
:1018500003F2071303442846BDE8704018474FF0D1
:10186000FF3070BD10B500F047F8BDE8104000F043
:101870003DB870477546FFF7D7FCAE460500694690
:10188000534620F00700854618B020B5FEF7E4FC6B
:10189000BDE820404FF000064FF000074FF0000871
:1018A0004FF0000B21F00701AC46ACE8C009ACE8F2
:1018B000C009ACE8C009ACE8C0098D4670473A28B9
:1018C00000D2303820F02002412A01D3A2F13700A3
:1018D000884201D34FF0FF30704710B50446AFF394
:1018E00000802046BDE81040FEF7A1BC002801D0D2
:1018F00000F06AB87047000010B5012805D000213B
:1019000003A000F067F8012010BD09A1F8E700006E
:1019100053494752544D454D3A204F7574206F66D8
:101920002068656170206D656D6F72790000000040
:101930003A2048656170206D656D6F727920636F24
:1019400072727570746564004FF0013C50F8042B9E
:1019500051F8043B9A4221D1A2EB0C03934313EAC2
:10196000CC1317D150F8042B51F8043B9A4215D1EF
:10197000A2EB0C03934313EACC130BD150F8042BC6
:1019800051F8043B9A4209D1A2EB0C03934313EAAA
:10199000CC13DBD04FF00000704700BFD01A01BA63
:1019A000B1FA81F101F0180122FA01F0CB40C1F146
:1019B0002001DBB2C0B2C01A2CFA01F3D11A914354
:1019C00011EAC311E6D1704701491820ABBEFEE70A
:1019D0002600020070B505460C460A2000E06D1C8A
:1019E00000F011F835B128780028F8D102E0641C25
:1019F00000F009F814B120780028F8D1BDE8704053
:101A00000A20AFF3008008B569468DF80000032076
:101A1000ABBE08BD5FEA400C08BF91F0000F4FEA73
:101A20008C234FEAC12243EA51514FEA1C5018BFA0
:101A300000F5F0404FEA300018BF41F000415FEA86
:101A40006C5C00F02980BCF1FF3F08BF40F0804093
:101A50007047130C06BF12044FF0100C4FF0000C2F
:101A6000130E04BF12020CF1080C130F04BF120175
:101A70000CF1040C930F04BF92000CF1020CD30F75
:101A800004BF52000CF1010C11464FF00002A0F10E
:101A90001F00A0EB0C00704711F0004F08BF70470B
:101AA00031F000413FF4D5AF0B0C06BF09044FF0F5
:101AB000100C4FF0000C0B0E04BF09020CF1080CC7
:101AC0000B0F04BF09010CF1040C8B0F04BF89003C
:101AD0000CF1020CCB0F04BF49000CF1010CCCF14E
:101AE0002003A0EB0C0022FA03F302FA0CF241EA05
:101AF000030100F10100704720F07F4C80EA0300F1
:101B000023F07F47ACEB070303F57C5300F0004064
:101B100003F1FF032DE980494FEA154B09B44FEA61
:101B2000144325EA0B4E24EA03480FF2042606EB81
:101B3000132749083E785FEA320203FB0667C7F5C0
:101B4000000707FB06F64FEA54374FEAD64606F180
:101B5000020607FB066CCCF1005C4FEA1C472CEA3E
:101B6000074C07FB06F40CFB06F504EB15464FEAA1
:101B7000961634BF00204FF000404FEAD13706FBE5
:101B800007FC4FEA1C4C0CFB0BF7D21B03FB0CF7BA
:101B900061EB07010CFB0EF7B0EB074072EB17424D
:101BA0000CFB08F734BFA2EB0742B2EB074261EB34
:101BB00017414FEA0C444FEA910706FB07FC4FEA36
:101BC0001C4C0CFB0BF7B0EBC74072EB573203FB1E
:101BD0000CF734BFA2EBC742B2EBC74261EB5731FF
:101BE0000CFB0EF7B0EBC70072EB57720CFB08F75B
:101BF00034BFA2EBC702B2EBC70261EB5771039F80
:101C00004FEA816141EA921104EBCC044FEAD137EB
:101C10004FEA826206FB07FC42EA90124FEA8060BC
:101C20004FEA1C4C0CFB0BF7D21B03FB0CF761EBD0
:101C300007010CFB0EF7B0EB074072EB17420CFBF1
:101C400008F734BFA2EB0742B2EB074261EB174142
:101C50004FEA8C554FEA910704EB9C2406FB07FCE6
:101C60004FEA1C4C0CFB0BF7B0EBC74072EB573242
:101C700003FB0CF734BFA2EBC742B2EBC74261EBE8
:101C800057310CFB0EF7B0EBC70072EB57720CFB31
:101C900008F734BFA2EBC702B2EBC70261EB577182
:101CA00015EB4C254FEA816141EA92114FEA8262BD
:101CB0004FEAD13742EA901206FB07FC44F10004D8
:101CC0004FEA80604FEA1C4C0CFB0BF7D21B03FB66
:101CD0000CF761EB07010CFB0EF7B0EB074072EB62
:101CE00017420CFB08F734BFA2EB0742B2EB0742E6
:101CF00061EB174115EB1C154FEA813141EA924126
:101D00004FEA823242EA90424FEA80304FEA0C7644
:101D100044F1000448EA03434EEA0B484FF0000E3A
:101D2000B2EB080C71EB030724BF624639464EEB59
:101D30000E0E4FF0000B0018524149414BEB0B0BBC
:101D4000B2EB080C71EB03077BF1000B24BF62467A
:101D500039464EEB0E0E4FF0000B00185241494130
:101D60004BEB0B0BB2EB080C71EB03077BF1000B99
:101D700024BF624639464EEB0E0E51EA020718BFE9
:101D800046F0010616EB0E7655F1000254F1000103
:101D900003D5BDE88901BDE80088BDE88901BDE83B
:101DA0000048B619524141EB0101A3F1010370470C
:101DB00080807F7E7D7C7B7A797877767675747388
:101DC000727171706F6E6E6D6C6C6B6A6A69686847
:101DD000676666656464636362616160605F5F5EDD
:101DE0005E5D5D5C5C5B5B5A5A5959585857575653
:101DF00056555555545453535252525151505050B8
:101E00004F4F4F4E4E4D4D4D4C4C4C4B4B4B4A4A09
:101E10004A4949494848484747474746464645454D
:101E20004544444444434343434242424241414186
:101E3000002B9C4630D477002BD01CB54FEA3707D7
:101E400003B44FF010004FF01001BAF1000F06D0AC
:101E5000BCF1000FDCBF40F0080040F008014FF07B
:101E600000000FBCBDE810400BF1010BBBF1010FEE
:101E700008BF5FEA170722BF12F1010211F1010149
:101E80004FF0004143F1000300F0004043EA00003E
:101E90007047F9D35708D0E746EA064613F1400FDA
:101EA0004FEA16461FDD13F1200FDFBF16430A4627
:101EB000002120335B42BED0C3F1200746EA06462C
:101EC00002FA07F74FEA164646EA0706C3F120076B
:101ED00022FA03F201FA07F721FA03F14FF00003A7
:101EE00042EA0702A7E746EA020646EA06464FEA42
:101EF000164646EA0106BCBF46EA0646360C4FF0D7
:101F000000034FF000024FF0000194E72DE9804CF0
:101F10009A46934670B491E8380007C831EA400CFD
:101F200048BF34EA430C03D5FFF7E6FDFFF780FF17
:101F3000F0BCBDE8008C2DE9804C9A46934670B405
:101F400091E8380007C810F0804F08BF13F0804FA9
:101F500003D100F005F8FFF76BFFF0BCBDE8008C83
:101F600020F07F4780EA030023F07F4C07EB0C034F
:101F7000A3F57C5300F00040A3F1FE0392F0000FA4
:101F800000F0B38095F0000F00F077802DE9014953
:101F90004FEA11404FEA144621EA004800FB06FCD4
:101FA00024EA064708FB06F607FB08F800FB07F7DC
:101FB00018EB06484CEB164C4FEA124B18EB07484F
:101FC0004FEA15464CEB174022EA0B4E0BFB06FC82
:101FD00025EA06470EFB06F607FB0EFE0BFB07F78E
:101FE0001EEB064E4CEB164C4FF000061EEB074E58
:101FF0004CEB174B18EB0B0840F1000018EB0E0BE5
:1020000058EB000840F100008F1A4FF000013CBF70
:10201000C943661B14BFB5EB040C00213CBFC94388
:10202000F61B4FEA17444EEA8E0E27EA04454FEAA4
:102030001C4704FB07622CEA074C05FB07F70CFB67
:1020400005F604FB0CFC16EB074642EB174216EBB9
:102050000C4642EB1C421BEB060658EB02024141C8
:1020600046EA9E0601D5BDE80189B619524141EB09
:102070000101A3F10103BDE801894FEA14454FEACC
:10208000114724EA054621EA074C05FB07F406FB45
:1020900007F70CFB06F105FB0CFC11EB074144EBC9
:1020A00017444FEA124711EB0C4144EB1C4422EA5F
:1020B000074C05FB07F206FB07F70CFB06F605FBD2
:1020C0000CFC16EB074642EB174216EB0C4642EBB4
:1020D0001C456A1854F1000148BF7047B6195241B7
:1020E00041EB0101A3F10103704795F0000F37D0D8
:1020F0004FEA11424FEA144721EA024624EA074C0C
:1021000002FB07F106FB07F70CFB06F402FB0CFCD5
:1021100014EB074441EB17414FEA154714EB0C440D
:1021200041EB1C4125EA074C02FB07F506FB07F7CC
:102130000CFB06F602FB0CFC16EB074645EB1745BD
:1021400016EB0C4645EB1C42121951F1000148BF39
:102150007047B619524141EB0101A3F101037047E9
:102160004FEA14454FEA114724EA054621EA074C95
:1021700005FB07F106FB07F70CFB06F24FF0000624
:1021800005FB0CFC12EB074241EB174112EB0C4232
:1021900051EB1C4148BF7047921841EB0101A3F17C
:1021A0000103704710B500200A49086002F098F951
:1021B00000200949C1F8B001022000F044FA0120D2
:1021C00004490860022000F03EFA00200249C1F8EC
:1021D000B40110BDB48121420080214210B500201D
:1021E0000A49086002F07CF901200949C1F8B001F0
:1021F000022000F028FA012004490860022000F0C3
:1022000022FA00200249C1F8B40110BDB481214274
:102210000080214270B50546002402F04FF90026E7
:1022200016E000200F490860022000F00CFA01209F
:102230000D49C1F8B4016006040E0A4884380068EC
:1022400008B1601CC4B2012000F0FDF9701CC6B2D8
:10225000082EE6DB15B9FFF7C1FF01E0FFF7A2FF8B
:10226000204670BDB48121420080214270B50446F1
:1022700002F036F900201349086000251EE0E0094D
:1022800020B101200F49091F086003E000200D491B
:10229000091F08606006040E022000F0D4F9012036
:1022A00008490860022000F0CEF900200649C1F874
:1022B000B401022000F0C7F9681CC5B2082DDEDBAE
:1022C00070BD0000B48121420080214210B502F0AF
:1022D00007F90120094908600949C1F8B40104203F
:1022E00000F0B1F9002005490860042000F0ABF9C6
:1022F00000200349C1F8B40110BD0000B0812142A3
:102300000080214210B502F0EBF800200849086077
:102310000849C1F8B001042000F095F901200449F2
:1023200008600449C1F8B001042000F08CF910BD28
:10233000B48121420080214210B5002402F0BEF891
:1023400001200E49086000F07EF901200C49C1F817
:10235000B40100F078F907E0601CC4B2FA2C03DD88
:10236000FFF7D0FF012010BD044880380068002826
:10237000F2D10249091D086000BFF4E7B081214293
:102380000080214208B50121082002F01DF84FF419
:102390004050ADF8000010208DF8030003208DF8A8
:1023A00002006946084800F0DDFB4FF44051064842
:1023B00000F077FC012002F068FD072002F065FDC7
:1023C000112002F062FD08BD000C014008B501219A
:1023D000042001F0F9FF10208DF803000120ADF872
:1023E000000003208DF802006946044800F0BAFBA3
:1023F0000121024800F055FC08BD00000008014022
:1024000000BFFEE70748006840F08070054908609B
:102410000020054948600846006840F00100086057
:1024200070470000FCED00E0001000E0014840684B
:1024300070470000001000E031B50024FFF7E2FF14
:10244000104800681049B0FBF1F0009900FB01F55D
:1024500000BFFFF7EBFF034611E0FFF7E7FF02467F
:102460009A420CD09A4202D9D01A044403E0C3F134
:10247000FF30104404441346AC4200D300E0ECE7C4
:1024800000BF38BD0000002040420F0008B5012108
:10249000102001F099FF4FF48070ADF8000010207B
:1024A0008DF8030003208DF802006946014800F012
:1024B00059FB08BD0008014010B5FFF7E7FF4FF4D6
:1024C0008071024800F0EDFB10BD000000080140E3
:1024D00008B54FF48070ADF8000048208DF8030077
:1024E0006946024800F03EFB08BD000000080140BC
:1024F00008B54FF48070ADF8000010208DF803008F
:1025000003208DF802006946014800F02BFB08BD4E
:102510000008014070B50025002427E000BF4FF4FB
:102520008071144800F0A9FB0028F8D02820FFF79C
:1025300083FF4FF480710F4800F09FFB01280ED1FC
:1025400000BF4FF480710B4800F097FB0128F8D0D2
:10255000C4F1070101208840C0B2054304E0C4F182
:102560000701012088408543601CC4B2082CD5DBDC
:10257000284670BD000801402DE9F04104460D4693
:1025800016461F46FFF7B4FF4FF48071264800F04F
:1025900086FB44F25060FFF74FFF4FF480712248F2
:1025A00000F07FFB1E20FFF747FFFFF791FF4FF47E
:1025B00080711D4800F061FB88BB00BF4FF4807143
:1025C000194800F05AFB0028F8D000BF4FF4807182
:1025D000154800F052FB0128F8D0FFF79BFF207050
:1025E000FFF798FF2870FFF795FF3070FFF792FF15
:1025F0003870FFF78FFF8046FFF77AFF4FF4807146
:10260000094800F04EFB20782978084431780844C6
:1026100039780844404503D10120BDE8F08101E04C
:102620000020FAE70020F8E700080140704700B5F5
:10263000034603E04FF47A7000F005F8181EA3F18A
:102640000103F7D100BD00EBC001C9004FF0E0224B
:102650005161002191610521116100BF4FF0E0211E
:10266000096901F480310029F8D004214FF0E022FB
:102670001161704710B580210348FEF749F9002029
:102680000249088010BD00005C00002028000020E6
:1026900070B50546002400BF00F086F980B90DA191
:1026A0000E48FEF742F8044654B13A212046FEF7A0
:1026B00020F8044614B1641C204670BD0020FCE7DD
:1026C0000A20FFF7B4FF281EA5F101018DB2E3D166
:1026D00000BFF2E74950442C000000005C000020DD
:1026E00008B50121042001F06FFE10208DF80300D1
:1026F0008002ADF8000003208DF8020069464048D2
:1027000000F030FA00224FF480413D4800F0CBFA4F
:10271000FA20FFF78CFF01229103394800F0C3FA39
:102720004FF4FA70FFF783FFFFF7A4FF35A1374896
:1027300002F0DEFA03E04FF4FA70FFF778FF34A1FD
:1027400034A000F0E3F80028F5D134A12F4802F0BE
:10275000CFFA03E04FF4FA70FFF769FF2EA132A021
:1027600000F0D4F80028F5D103E04FF4FA70FFF739
:102770005EFF29A12FA000F0C9F80028F5D131A1F2
:10278000224802F0B5FA03E04FF4FA70FFF74FFF6A
:102790001FA12FA000F0BAF80028F5D130A11B48E6
:1027A00002F0A6FA03E04FF4FA70FFF740FF18A119
:1027B0002FA000F0ABF80028F5D131A1134802F0AA
:1027C00097FA03E04FF4FA70FFF731FF2FA131A021
:1027D00000F09CF80028F5D135A10C4802F088FAE9
:1027E00003E04FF4FA70FFF722FF35A136A000F0A6
:1027F0008DF80028F5D13FA1044802F079FA08BD10
:1028000000100140302E2041540D0A0000380140D4
:102810004F4B000041540D0A00000000312E2052A1
:1028200053540D0A0000000041542B5253540D0A1A
:102830000000000041542B434950434C4F53450D79
:102840000A000000322E2043574D4F44450D0A0028
:1028500041542B43574D4F44453D310D0A00000074
:10286000332E2041542B4357444843500D0A000057
:1028700041542B4357444843503D312C310D0A00FD
:10288000342E2043574A41500D0A0000474F542030
:102890004950000041542B43574A41503D2236369F
:1028A00036222C223132333435363738220D0A00A5
:1028B000352E2043495053544152540D0A00000014
:1028C000434F4E4E4543540041542B4349505354BB
:1028D0004152543D22544350222C2262726F6B6548
:1028E000722E656D71782E696F222C313838330D58
:1028F0000A000000362E2045535038323636204923
:102900006E6974204F4B0D0A000000002DE9F04164
:1029100004460D46C8262046FDF719FF87B23A4601
:1029200021460D4802F008FA0FE000F03DF848B9E2
:1029300029460A48FDF7F9FE20B1FFF79BFE00206B
:10294000BDE8F0810A20FFF772FE301EA6F10101FA
:10295000CEB2EAD10120F3E7004400405C00002041
:1029600030B589B004460D46FFF784FE2A4608A11B
:1029700001A8FDF701FD0AA101A8FFF7C7FF20B9D3
:102980002A462146074802F0D7F909B030BD0000B9
:1029900041542B43495053454E443D25640D0A0094
:1029A0003E000000004400400A48008808B90120A9
:1029B00070470848008808490988884203D10020E8
:1029C00004490880F4E7034800880349088001208F
:1029D000EEE70000280000202A00002010B50120AA
:1029E00000F042F8012811D144F62060FFF724FDE1
:1029F0000748006838B90748006808B9012000E0B6
:102A0000002004490860012000F028F810BD0000F3
:102A1000008121428401214210B5022000F024F8F7
:102A2000012814D142F21070FFF706FD0848006833
:102A300050B90848007808B9012000E00020054995
:102A40000870002004490870022000F007F810BD4B
:102A5000048121423D0000203C0000200149086023
:102A60007047000014040140014600200022074B7B
:102A70001B6803EA0102054B14331B680B4013B1BA
:102A80000AB1012000E0002070470000000401406E
:102A9000002123498279002A3AD00A461268036845
:102AA0009A430B461A600A1D126803689A430B1D6D
:102AB0001A60027911440A6803681A430A60184AC6
:102AC0000832126803689A43154B08331A601A1DBE
:102AD000126803689A43124B0C331A604279102A29
:102AE0000ED11A1F126803681A430D4B08331A607F
:102AF0001A1D126803681A43094B0C331A600DE063
:102B00000749427911440A6803681A430A6005E0DC
:102B1000027911440A6803689A430A60704700000A
:102B20000004014030B500228B071C0F0F2303FA6D
:102B300004F20B4B8C1053F824309343084C8D1047
:102B400044F8253023468C1053F824308C07240F8A
:102B500000FA04F42343024C8D1044F8253030BDB4
:102B6000080001402DE9F041024600250026002022
:102B700000230024002791F803C00CF00F0591F802
:102B800003C00CF0100CBCF1000F03D091F802C090
:102B90004CEA050591F800C0BCF1000F31D0146873
:102BA00000202BE04FF0010C0CFA00F3B1F800C04C
:102BB0000CEA03069E4220D183004FF00F0C0CFA62
:102BC00003F7BC4305FA03FC4CEA040491F803C084
:102BD000BCF1280F06D14FF0010C0CFA00FCC2F832
:102BE00014C00AE091F803C0BCF1480F05D14FF0C2
:102BF000010C0CFA00FCC2F810C0401C0828D1D30C
:102C00001460B1F800C0BCF1FF0F34DD546800203F
:102C10002EE000F1080C4FF0010808FA0CF3B1F8AF
:102C200000C00CEA03069E4221D183004FF00F0C36
:102C30000CFA03F7BC4305FA03FC4CEA040491F8D0
:102C400003C0BCF1280F05D100F1080C08FA0CF8FC
:102C5000C2F8148091F803C0BCF1480F07D100F10D
:102C6000080C4FF0010808FA0CF8C2F81080401C5C
:102C70000828CED35460BDE8F08102460020936856
:102C80000B400BB1012000E00020704702460020FD
:102C9000D3680B400BB1012000E000207047416178
:102CA0007047016170470AB1016100E041617047FE
:102CB00000BFFEE708B50121082001F085FB482090
:102CC0008DF803000120ADF8000003208DF802000C
:102CD00069460848FFF746FF48208DF803000220A8
:102CE000ADF8000003208DF8020069460148FFF7A7
:102CF00039FF08BD000C014010B54FF400510248E7
:102D0000FFF7CFFF10BD00000010014010B54FF4D9
:102D100000510848FFF7BAFF28B94FF400510548A1
:102D2000FFF7BFFF04E04FF400510248FFF7B7FF81
:102D300010BD00000010014008B50121042001F081
:102D400043FB10208DF803000220ADF800000320A3
:102D50008DF8020069460F48FFF704FF012110209B
:102D600001F032FB10208DF803004002ADF80000A6
:102D700003208DF8020069460748FFF7F3FE0221A1
:102D80000448FFF78EFF4FF400510348FFF789FF17
:102D900008BD0000000801400010014010B50446C5
:102DA000207B012802D12068FDF797FA00202060DF
:102DB0006060A060207310BD0246002301230DE077
:102DC00002F07F000870D2092AB1087840F0800034
:102DD0000870491C01E0184670475B1C042BEFDDAE
:102DE0004FF0FF30F8E770B504460E460025206826
:102DF00098B9012020733046FDF740FA2060206822
:102E0000E0B100206060A66003E000202168485522
:102E10006D1CA068A842F8D810E00220207303E0DF
:102E20000020216848556D1CA068A842F8D80020F1
:102E30006060A068B04201D20020206070BD000038
:102E40002DE9FF4F83B082468B469146159C0025A5
:102E5000002002900F2701904846FDF778FC0FFAFA
:102E600080F8B9F1000F03D1012007B0BDE8F08F61
:102E700008F10200384487B2109808B145F0020505
:102E8000129878B145F004051298FDF760FCC0B2C5
:102E900002901398FDF75BFC01460298001D084460
:102EA000384487B2119820B1012804D0022808D1F3
:102EB00004E000BF07E045F00C0504E045F0140510
:102EC00001E00220D1E700BF149808B145F02405C5
:102ED000BAF1000F02D0BBF1000F01D10320C4E70B
:102EE00045F0C0055046FDF732FC06465846FDF752
:102EF0002EFC3044001D384487B239462046FFF787
:102F000072FF206808B90420AFE739462068FDF752
:102F1000FFFC10216268501C606020688154D4E975
:102F20000023D118781FFFF747FF00B201900198E6
:102F3000002804DA2046FFF731FF052095E7616895
:102F400001980844606000216268501C606020683D
:102F5000815404216268501C6060206881544D21B6
:102F60006268501C60602068815451216268501C66
:102F700060602068815454216268501C6060206841
:102F800081546268501C606020688154042162682A
:102F9000501C6060206881546168481C6060206833
:102FA00045540698010A6268501C6060206881548C
:102FB0000698C1B26268501C606020688154C8F3F2
:102FC00007216268501C6060206881546268501C50
:102FD0006060206800F80280D4E900128818424638
:102FE0004946FDF790FB60684044606005F00400CE
:102FF000B8B30026139808B938A013901298FDF7BB
:10300000A6FB86B2310A6268501C60602068815459
:103010006268501C606020688654D4E900128818E9
:1030200032461299FDF76FFB606830446060139878
:10303000FDF78DFB86B2310A6268501C6060206823
:1030400081546268501C606020688654D4E9001284
:10305000881832461399FDF756FB6068304460606B
:1030600000BF05F08000C8B15046FDF770FB86B286
:10307000310A6268501C6060206881546268501C8C
:10308000606020688654D4E90012881832465146A0
:10309000FDF739FB60683044606000BF05F0400018
:1030A000C8B15846FDF753FB86B2310A6268501C1E
:1030B0006060206881546268501C6060206886549B
:1030C000D4E90012881832465946FDF71CFB6068A7
:1030D0003044606000BF0020C7E600000000000030
:1030E0002DE9FF4F83B0834617469946139C002570
:1030F00000260020029001908046BBF1000F03D112
:10310000012007B0BDE8F08F00260AE00498805D3A
:10311000232803D00498805D2B2801D10220F0E7FA
:10312000761C0498805D0028F0D148F03008119892
:1031300008B148F0010806EB0900851C109820B181
:10314000012804D002280AD105E000BF09E048F0B8
:103150000208AD1C05E048F00408AD1C01E00320A6
:10316000CFE700BF8FB33878022821D14FF0000A93
:1031700000BF50460AF1010A385C7D28F9D1AAF156
:10318000030A0AF1070002900298A9EB000AE81C62
:10319000A0EB0A012046FFF726FE206808B90420AC
:1031A000AFE7EA1CA2EB0A012068FDF7B1FB19E0CA
:1031B000691D2046FFF717FE206808B90420A0E724
:1031C000691D2068FDF7A4FB0CE0FFE7691D2046A0
:1031D000FFF709FE206808B9042092E7691D2068FE
:1031E000FDF796FB6168481C6060206800F801806C
:1031F000D4E9000281182846FFF7DEFD019001980E
:10320000002804DA2046FFF7C9FD052079E7616848
:10321000019808446060C6F307216268501C606032
:10322000206881546268501C606020688654D4E92C
:103230000012881832460499FDF765FA6068304438
:103240006060109860B14FEA1B216268501C60609A
:10325000206881546268501C6060206800F802B0E9
:10326000C7B1387802280BD1D4E900128818394642
:10327000029AFDF7D6FA616802980844606009E096
:10328000D4E9001288184A463946FDF7CAFA606840
:1032900048446060002034E770B505460C460421C0
:1032A0002046FFF7A0FD206808B9012070BD7021FD
:1032B0006268501C60602068815402216268501C62
:1032C00060602068815429126268501C6060206828
:1032D00081546268501C6060206885540020E5E7D6
:1032E00070B505460C4604212046FFF77CFD20689A
:1032F00008B9012070BD62216268501C60602068BE
:10330000815402216268501C606020688154291237
:103310006268501C6060206881546268501C606064
:10332000206885540020E5E72DE9FF5F80461746B9
:1033300099460E9C0026B246B3460025B8F1000F10
:1033400003D1012004B0BDE8F09F0BE057F8250041
:1033500008B90220F6E757F82500FDF7F8F906440A
:10336000681CC5B24D45F1DB09EB4900801C00EB40
:10337000060A0AF105012046FFF735FD206808B965
:103380000320DFE782216268501C6060206881545E
:10339000D4E9000281185046FFF70EFD0FFA80FBBA
:1033A000BBF1000F04DA2046FFF7F8FC0420C9E760
:1033B0006068584460604FEA18216268501C606081
:1033C000206881546268501C6060206800F80280A8
:1033D000002524E057F82500FDF7B9F90646C6F3A5
:1033E00007216268501C6060206881546268501C2C
:1033F000606020688654D4E90023D01857F825105F
:103400003246FDF780F96068304460600198C1B2CF
:103410006268501C606020688154681CC5B24D45CC
:10342000D8DB00208EE7F0B504460D462646012382
:1034300000201060002114E0775C07F07F0710681F
:1034400007FB03001060705C00F0800008B9481CA6
:10345000F0BDDB01B3F5001F02D36FF00100F7E709
:10346000491CA942E8DB4FF0FF30F1E72DE9F843B2
:1034700080460C4615461E462F2108F10600FDF732
:1034800038F907460020009017B90120BDE8F883FD
:103490007F1C6A46042108F10100FFF7C4FF2520C4
:1034A000FCF7ECFE2060206808B90220EEE7252139
:1034B0002068FDF72DFA242239462068FDF7B1F97E
:1034C000243700982C3830803188481CFCF7D6FE11
:1034D0002860286820B92068FCF7FFFE0320D5E7A4
:1034E0003288511C2868FDF713FA3288394628685B
:1034F000FDF797F90020C9E701464878022801D076
:1035000001207047887810B18878012801D1C878E7
:10351000F7E7FF20F5E700002DE9FC5F81460D4647
:1035200014461E46DDE90C8B99F8000000F00F0AE6
:10353000002001900AF008000090CAF341008BF8C7
:10354000000001AA042109F10100FFF76CFF4844C3
:10355000471C0198022802D30AF0010010B1FF2095
:10356000BDE8FC9F7878397840EA012020802088E7
:10357000801C0199884201D9FF20F1E754A1B81CB1
:10358000FDF7D3F808B10F20EAE79BF8000020B15F
:1035900001283DD0022877D13BE0009808B1FF20F8
:1035A000DEE72188481CFCF769FE2860286808B916
:1035B000FF20D5E72288511C2868FDF7A9F9228849
:1035C000B91C2868FDF72DF90198801E2188401A42
:1035D000A8F80000B8F80010481CFCF74FFE306057
:1035E000306820B92868FCF778FEFF20B8E7B8F803
:1035F0000020511C3068FDF78BF9B8F80020B4F8B2
:1036000000C0BB1C0CEB03013068FDF70AF94FE06A
:1036100000BF2088801C0199884201D9FF209FE7C4
:103620002088C01C395C2088801C385C41EA00215D
:103630000E9801800E9808B9FF2091E72188481C58
:10364000FCF71CFE2860286808B9FF2088E722885C
:10365000511C2868FDF75CF92288B91C2868FDF721
:10366000E0F80198001F2188401AA8F80000B8F877
:103670000010481CFCF702FE3060306828B928684A
:10368000FCF72BFEFF206BE710E0B8F80020511C80
:103690003068FDF73DF9B8F80020B4F800C03B1DD4
:1036A0000CEB03013068FDF7BCF801E0FF2057E7A1
:1036B00000BF2B212846FDF71CF820B923212846FE
:1036C000FDF717F808B1FF204AE7002048E700009F
:1036D000246372657100000001464878022801D019
:1036E00001207047887820B9C8780A2801D10020C5
:1036F000F7E70120F5E701464878022801D00120CC
:103700007047887820B9C8780A2801D10020F7E7E7
:103710000120F5E701464878022801D001207047D2
:10372000887820B9C8780A2801D10020F7E701205D
:10373000F5E702465078022801D0012070479078C2
:10374000B0EB112F05D1D078CBB2984201D1002037
:10375000F4E70120F2E70000F8B50446FF272078DF
:103760000511012D01DB0E2D01DD3846F8BD032DBD
:1037700024D1002000906A460421601CFFF753FE0C
:103780002044461C0098022803D3207800F0010052
:1037900008B1FF20EAE77078317840EA0120801C08
:1037A0000099884201D9FF20E0E706A1B01CFCF790
:1037B000BCFF08B10F2700E0032700E02F46384682
:1037C000D4E7000024637265710000000146FF2009
:1037D0008A78A2B9CA78142A11D10A7932B1012A99
:1037E00005D0022A04D0802A06D103E000BF00BF22
:1037F000002003E0012001E0022000BF00BF70476D
:10380000014601208A781AB9CA781E2A00D1002000
:1038100070470EB50121084600F0D6FDFFF74AFAC1
:1038200000210120FFF77EF9012001908DF80A00A8
:1038300000208DF808000C208DF8090001A8FFF782
:1038400027F901210846FFF76DF9022001900120B8
:103850008DF80A0000208DF808000C208DF8090072
:1038600001A8FFF715F94FF4A06000F059F8062001
:103870008DF8000001208DF8030002208DF8010072
:103880008DF80200684600F013F807208DF800005C
:1038900001208DF8030002208DF8010001208DF831
:1038A0000200684600F004F80EBD00BFFEE7704756
:1038B00070B5002100230F22C47804B3154C24688E
:1038C00004F4E064C4F5E064210AC1F10403CA40D1
:1038D000447804FA03F184781440214309010E4C22
:1038E0000678A155047804F01F050124AC40057842
:1038F0006D11AD0005F1E025C5F8004109E004783F
:1039000004F01F050124AC40044D0678761145F8FB
:10391000264070BD0CED00E000E400E080E100E036
:1039200002490143024A1160704700000000FA0595
:103930000CED00E070B500240EE00021204600F000
:10394000E6F8002504E0002000F050F9681CC5B23C
:10395000802DF8DB601CC4B2082CEEDB70BD0000CB
:1039600008B50121082000F02FFD14208DF8030078
:1039700003208DF802004FF48070ADF80000694616
:103980000A48FFF7EFF84FF40070ADF80000694601
:103990000648FFF7E7F8012211020448FFF783F910
:1039A000012251020148FFF77EF908BD000C0140D9
:1039B00070B50546002415E08020204100EA05028C
:1039C0004FF400710E48FFF76EF9012211020C4806
:1039D000FFF769F900224FF480710948FFF763F996
:1039E000601CC4B2082CE7DB012211020448FFF777
:1039F0005AF900224FF480710148FFF754F970BD65
:103A0000000C014010B5012251020A48FFF74BF9A2
:103A1000012211020748FFF746F900224FF4007116
:103A20000448FFF740F900224FF480710148FFF786
:103A30003AF910BD000C014010B500224FF400719E
:103A40000648FFF730F9012211020448FFF72BF96D
:103A5000012251020148FFF726F910BD000C014078
:103A600070B5002406E0002500E06D1CB5F57A7FF6
:103A7000FBD3641CB4F57A7FF5D3FFF771FFAE205A
:103A800000F0A4F8D52000F0A1F8802000F09EF806
:103A9000A82000F09BF83F2000F098F8D32000F019
:103AA00095F8002000F092F8402000F08FF8A12057
:103AB00000F08CF8C82000F089F8DA2000F086F8D1
:103AC000122000F083F8812000F080F8CF2000F071
:103AD0007DF8D92000F07AF8F12000F077F8DB20AB
:103AE00000F074F8302000F071F8A42000F06EF8B7
:103AF000A62000F06BF88D2000F068F8142000F08C
:103B000065F8AF2000F062F8FFF714FF70BD70B5E4
:103B100005460C4645F0B00000F058F8102141EA87
:103B2000141000F053F804F00F0000F04FF870BDCF
:103B30002DE9F04105460E461746721ED206110EBB
:103B40006A1E5206100EFFF7E2FF002409E0A7F1FB
:103B50002001134A02EB0111085D00F047F8601CD8
:103B6000C4B2082CF3DB721ED206110E6A1E0123AA
:103B700003EB4202D0B2FFF7CAFF00240BE0A7F12B
:103B80002001074A02EB011204F10801505C00F029
:103B90002DF8601CC4B2082CF1DBBDE8F0810000F8
:103BA000E07200082DE9F04107460E461546002454
:103BB00007E02A5D3019C1B23846FFF7B9FF601C33
:103BC000C4B2285D0028F4D1BDE8F08110B50446E8
:103BD000FFF718FF7820FFF7EBFE0020FFF7E8FE65
:103BE0002046FFF7E5FEFFF727FF10BD10B504469E
:103BF000FFF708FF7820FFF7DBFE4020FFF7D8FE35
:103C00002046FFF7D5FEFFF717FF10BD30B58BB08C
:103C100000200790089009900A90012530A033A356
:103C200034A238A10090434801F062F807A80021AF
:103C300002910391CDE9041000912B0228A2019179
:103C40002AA12CA0FFF7FCF8002842D1089A91B2D3
:103C50000798FEF785FEFA20FEF71AFD0446002CB1
:103C600033D02046FFF778FD02282ED12046FFF7FB
:103C700043FC062823D2DFE800F003090E13181DC9
:103C80002DA12C4801F034F800251DE030A1294871
:103C900001F02EF818E038A1264801F029F813E0C9
:103CA00040A1244801F024F80EE048A1214801F089
:103CB0001FF809E052A11F4801F01AF804E05EA1C4
:103CC0001C4801F015F800BF00BF07A8FFF766F811
:103CD00003E062A1174801F00BF828460BB030BD95
:103CE00032303234313032370000000054656D70AC
:103CF00031323300323032323336303930313236CD
:103D0000000000004F6E654E65745F4465764C6937
:103D10006E6B0D0A50524F49443A2025732C0941CD
:103D20005549463A2025732C0944455649443A25BD
:103D3000730D0A0000380140546970733A09E8BFF6
:103D40009EE68EA5E68890E58A9F0D0A0000000099
:103D50005741524E3A09E8BF9EE68EA5E5A4B1E868
:103D6000B4A5EFBC9AE58D8FE8AEAEE99499E8AFC3
:103D7000AF5C720A000000005741524E3A09E8BF9A
:103D80009EE68EA5E5A4B1E8B4A5EFBC9AE99D9E98
:103D9000E6B395E79A84636C69656E7469640D0A8D
:103DA000000000005741524E3A09E8BF9EE68EA53A
:103DB000E5A4B1E8B4A5EFBC9AE69C8DE58AA1E53F
:103DC00099A8E5A4B1E8B4A50D0A00005741524EE8
:103DD0003A09E8BF9EE68EA5E5A4B1E8B4A5EFBC1C
:103DE0009AE794A8E688B7E5908DE68896E5AF86D1
:103DF000E7A081E99499E8AFAF5C720A0000000087
:103E00005741524E3A09E8BF9EE68EA5E5A4B1E8B7
:103E1000B4A5EFBC9AE99D9EE6B395E993BEE68E04
:103E2000A528E6AF94E5A682746F6B656EE99D9E4A
:103E3000E6B395290D0A00004552523A09E8BF9EA3
:103E4000E68EA5E5A4B1E8B4A5EFBC9AE69CAAE786
:103E50009FA5E99499E8AFAF5C720A005741524EB2
:103E60003A094D5154545F5061636B6574436F6EF2
:103E70006E656374204661696C65640D0A0000001C
:103E800070B588B005460C46002004900590069059
:103E9000079023462A4610A1174800F029FF204624
:103EA000FCF755FC064604A8012100220092334687
:103EB000CDE901210390224629460A20FFF710F997
:103EC00038B9059A91B20498FEF74AFD04A8FEF7A6
:103ED00065FF08B070BD00005075626C69736820A2
:103EE000546F7069633A2025732C204D73673A2014
:103EF00025730D0A00000000003801402DE9F04F45
:103F00008FB0814600200B900C900D900E900A907F
:103F10000990089007900027069000260025824609
:103F20004846FFF719FC0746F81E0D287BD2DFE84C
:103F300000F01C858EA8C4E9CDE9DBE9E9E90700BA
:103F400007AB0AAA09A94846FFF790FA06465EB9E8
:103F5000BDF81C00009084A18C48DDE9092300F025
:103F6000C7FE0BA8FEF71AFFCFE0894806A907AAEB
:103F70000AABCDE90021029008AA09A94846FFF73B
:103F8000CBFA0646002E58D1BDF81C000A99CDE99F
:103F90000010BDF820307FA17C48099A00F0A8FEEF
:103FA0000A9801F01FF88046B8F1000F08D100F020
:103FB000F3FF83465A4686A1744800F099FE39E023
:103FC00088A1404600F0EEFF044688A16F48226AAF
:103FD00000F08EFE85A16D48226900F089FE88A15F
:103FE0002069FCF7A2FB70B186A1404600F0DAFF21
:103FF0000446606918B10020844908601AE0012075
:104000008249086016E082A12069FCF78EFB88B126
:1040100081A1404600F0C6FF0446606920B101203E
:104020007F49087003E06DE000207D4908700020A2
:104030007C490870404600F083FF66E04846FFF781
:104040004BFB18B978A1514800F052FE5DE048469C
:10405000FFF760FBA0B97CA14C4800F049FE0BA91A
:104060000A20FFF73DF958B97DA1484800F040FE0D
:104070000C9A91B20B98FEF773FC0BA8FEF78EFE1C
:1040800043E0434801884846FFF753FBA0B97AA1B3
:104090003E4800F02DFE0BA90A20FFF7FDF858B9A5
:1040A0007BA13A4800F024FE0C9A91B20B98FEF7DF
:1040B00057FC0BA8FEF772FE27E04846FFF71BFBF4
:1040C00018B97AA1314800F013FE1EE04846FFF708
:1040D0007DFB20B97BA12D4800F00AFE03E080A102
:1040E0002A4800F005FE10E04846FFF789FB20B99A
:1040F00082A1264800F0FCFD03E087A1234800F0E0
:10410000F7FD02E04FF0FF3600BF00BFFEF7B2FA46
:10411000701C10B90FB0BDE8F08F7D210A98FCF734
:10412000E8FA0546A5B1701C90B16D1C06E015F8C3
:10413000012B50460AF1010A03A90A5428783028B5
:1041400002DB28783928F2DD03A8FCF7C5FA82469D
:104150000F2F01D0032F05D10998FCF7BEF80A985C
:10416000FCF7BBF800BFD5E7636D6469643A2025AE
:10417000732C207265713A2025732C207265715F53
:104180006C656E3A2025640D0A000000003801407D
:104190002C000020746F7069633A2025732C207402
:1041A0006F7069635F6C656E3A2025642C207061C6
:1041B000796C6F61643A2025732C207061796C6F83
:1041C00061645F6C656E3A2025640D0A0000000092
:1041D0004572726F72206265666F72653A5B257315
:1041E0005D0A000074617267657400006A736F6E27
:1041F0005F76616C75653A5B25735D0A00000000AF
:104200004C45440076616C756500000084012142D4
:10421000424545500000000056616C756500000085
:104220003D0000203C000020546970733A094D5154
:104230005454205075626C6973682053656E642015
:104240004F4B0D0A00000000546970733A09526523
:1042500076205075626C6973685265630D0A0000C0
:10426000546970733A0953656E64205075626C69C5
:10427000736852656C0D0A00546970733A0952658F
:1042800076205075626C69736852656C0D0A000087
:10429000546970733A0953656E64205075626C6995
:1042A0007368436F6D700D0A0000000054697073ED
:1042B0003A09526576205075626C697368436F6D78
:1042C000700D0A00546970733A094D5154542053CB
:1042D0007562736372696265204F4B0D0A000000BE
:1042E000546970733A094D51545420537562736385
:1042F00072696265204572720D0A0000546970731C
:104300003A094D51545420556E5375627363726966
:104310006265204F4B0D0A00546970733A094D5184
:10432000545420556E5375627363726962652045FB
:1043300072720D0A0000000070B586B004460D468A
:1043400000260020029003900490059007E054F8A6
:1043500026200DA1124800F0CBFC701CC6B2AE4264
:10436000F5DB02A82B462246002100901420FEF720
:10437000DBFF38B9039A91B20298FEF7F1FA02A86E
:10438000FEF70CFD06B070BD53756273637269620F
:104390006520546F7069633A2025730D0A00000090
:1043A000003801407047000029B1064AD269024333
:1043B000044BDA6104E0034AD2698243014BDA61BB
:1043C000704700000010024029B1064A926902437A
:1043D000044B9A6104E0034A92698243014B9A615B
:1043E000704700000010024030B500210022002478
:1043F00000232D4D6D6805F00C0121B1042905D075
:10440000082923D105E0294D056022E0274D0560EC
:104410001FE0254D6D6805F47012234D6D6805F49D
:104420008034022505EB92421CB9214D55430560AD
:104430000BE01D4D6D6805F400351DB11C4D554355
:10444000056002E0194D5543056002E0174D056017
:1044500000BF00BF144D6D6805F0F0010909154D4E
:104460006B5C0568DD4045600F4D6D6805F4E061EB
:10447000090A104D6B5C4568DD4085600A4D6D682A
:1044800005F46051C90A0B4D6B5C4568DD40C560A1
:10449000054D6D6805F44041890B074D6B5CC5689F
:1044A000B5FBF3F5056130BD0010024000127A0043
:1044B00000093D00140000202400002008B54FF43E
:1044C0008050ADF8000003208DF8020048208DF8E0
:1044D000030069460148FEF745FB08BD000C01409A
:1044E00008B54FF48050ADF8000003208DF80200AD
:1044F00010208DF8030069460148FEF733FB08BD24
:10450000000C0140704710B500F002F810BD00002B
:104510000CB50020019000903348006840F48030D2
:104520003149086000BF3048006800F40030009056
:104530000198401C0190009818B90198B0F5A06F3F
:10454000F1D12948006800F4003010B1012000903A
:1045500001E0002000900098012843D12348006822
:1045600040F01000214908600846006820F0030070
:1045700008600846006840F0020008601A48406879
:10458000194948600846406848600846406840F459
:10459000806048600846406820F47C104860084607
:1045A000406840F4E81048600846006840F08070B9
:1045B000086000BF0C48006800F000700028F9D0C7
:1045C0000948406820F003000749486008464068F1
:1045D00040F00200486000BF0348406800F00C0053
:1045E0000828F9D10CBD0000001002400020024054
:1045F0007047000010B51348006840F001001149F1
:10460000086008464068104908400E49486008465E
:1046100000680E4908400B4908600846006820F40D
:10462000802008600846406820F4FE0048604FF48F
:104630001F008860FFF767FF4FF0006004490860C3
:1046400010BD0000001002400000FFF8FFFFF6FE62
:1046500008ED00E010B50121880700F011F90128EC
:104660002AD1164803781648027816A11948FBF794
:1046700083FE184A01210846FFF794FA164803788A
:104680001648027816A11348FBF776FE114A01215D
:104690000220FFF787FA164803781648028816A109
:1046A0000C48FBF769FE0B4A01210320FFF77AFA59
:1046B0000121880700F0D5F810BD0000420000205D
:1046C0004100002054656D703A2025642E25642039
:1046D0004300000048000020400000203F00002070
:1046E00048756D693A2025642E2564202525000033
:1046F00046000020440000204C696768743A256435
:104700002E2564204C7800007FB505460C4601211B
:104710000846FFF749FE4FF0804000F0CBF800203C
:10472000ADF80A00ADF80600681E80B2ADF80800CA
:10473000601E80B2ADF8040000208DF80C0001A9C5
:104740004FF0804000F0BCF80121880700F086F8A7
:1047500001221146900700F0A4F84FF4A060FFF783
:10476000DFF81C208DF8000001208DF803000220E6
:104770008DF8010001208DF802006846FFF798F8D7
:104780000121880700F070F87FBD000010B50121FD
:104790000D4800F075F8012814D10C48007840B19C
:1047A0000B480068C0430B49C1F88001FEF7AEFA20
:1047B00004E0012006490860FEF79EFA0121024844
:1047C00000F04FF810BD0000000400403D00002044
:1047D00080012142000021427FB505460C4601219F
:1047E0000220FFF7E1FD1C4800F064F80020ADF85E
:1047F0000A00ADF80600681E80B2ADF80800601E21
:1048000080B2ADF8040000208DF80C0001A9124818
:1048100000F056F80121104800F020F8012211465E
:104820000D4800F03EF84FF4A060FFF779F81D2026
:104830008DF8000001208DF8030002208DF80100A2
:1048400001208DF802006846FFF732F80121024886
:1048500000F00AF87FBD000000040040CA43028255
:104860007047CA430282704721B1028842F00102B8
:10487000028004E002884FF6FE731A4002807047FF
:1048800030B50246002000230024158A05EA010302
:10489000958905EA010413B10CB1012000E0002064
:1048A00030BD1AB183890B43838102E083898B4336
:1048B0008381704701894FF6F8721140018170477A
:1048C000002202881D4B98420ED01D4B98420BD0FF
:1048D000B0F1804F08D01B4B984205D01A4B98423C
:1048E00002D01A4B984204D14FF68F731A404B886E
:1048F0001A43174B984207D0164B984204D04FF6F4
:10490000FF431A40CB881A4302808B8883850B882B
:1049100003850A4B98420BD0094B984208D00E4BA6
:10492000984205D00D4B984202D00D4B984201D1D0
:104930000B7A03860123838270470000002C01401C
:10494000003401400004004000080040000C00401A
:1049500000100040001400400040014000440140AD
:104960000048014010B540F22551044800F050F8CD
:1049700018B12021014800F029F810BD003801408D
:1049800010B540F225510E4800F042F8B0B10D4884
:104990000088802802D300200A4908800848001DAA
:1049A0000088C1B2074802880088401C054B188067
:1049B000054881542021024800F008F810BD00008D
:1049C00000440040280000205C00002001F4007238
:1049D000B2F5007F00D100BFCA430280704721B109
:1049E000828942F40052828104E082894DF6FF738D
:1049F0001A408281704702460020B1F5007F00D145
:104A000000BF13880B400BB1012000E0002070476D
:104A100070B50246002400230025002040F66A16E7
:104A2000B14200D100BFC1F3421501F01F030126BE
:104A300006FA03F3012D02D19689334006E0022DD8
:104A400002D1168A334001E0968A33400C120126C7
:104A500006FA04F41688344013B10CB1012000E0CA
:104A6000002070BDF0B5034600240026002500207C
:104A700040F66A17B94200D100BF1846C1F342148C
:104A800001F01F06012707FA06F5012C01D10C30B1
:104A900004E0022C01D1103000E014301AB1076894
:104AA0002F43076002E00768AF430760F0BD0000D6
:104AB0002DE9F04786B005460E460024A24600BF09
:104AC000A1460027B08900B100BF2F462C8A4CF6C2
:104AD000FF700440F08804432C82AC894EF6F3103A
:104AE0000440B08831890843718908430443AC818C
:104AF000AC8A4FF6FF400440B0890443AC8201A861
:104B0000FFF772FC1F48874202D1DDF810A001E0D8
:104B1000DDF80CA0A88900F4004040B10AEBCA00FF
:104B200000EB0A1031684900B0FBF1F807E00AEB2E
:104B3000CA0000EB0A1031688900B0FBF1F864206C
:104B4000B8FBF0F004012009642101FB1089A88959
:104B500000F4004040B1322000EBC900B0FBF1F09E
:104B600000F00700044308E0322000EB0910642144
:104B7000B0FBF1F000F00F0004432C8106B0BDE85B
:104B8000F087000000380140C1F3080282807047BE
:104B900000BFFEE710B586B0044601210420FFF7F0
:104BA00013FC01218803FFF70FFC18208DF8170074
:104BB0004FF40070ADF8140003208DF8160005A91D
:104BC0001E48FDF7CFFF04208DF817000002ADF856
:104BD000140003208DF8160005A91848FDF7C2FF40
:104BE00001940020ADF810000C20ADF80E0000205C
:104BF000ADF80C00ADF80A00ADF8080001A91048A6
:104C0000FFF756FF01210E48FFF7E9FE012240F2AF
:104C100025510B48FFF726FF25208DF800000120C5
:104C20008DF8030000208DF8010002208DF80200AD
:104C30006846FEF73DFE06B010BD000000080140CA
:104C40000038014010B586B0044601210420FFF76A
:104C5000BBFB01214804FFF7A7FB18208DF81700C4
:104C60000420ADF8140003208DF8160005A91E4895
:104C7000FDF778FF04208DF817000820ADF8140028
:104C800003208DF8160005A91748FDF76BFF019466
:104C90000020ADF810000C20ADF80E000020ADF89B
:104CA0000C00ADF80A00ADF8080001A90F48FFF7A5
:104CB000FFFE01210D48FFF792FE012240F225512F
:104CC0000A48FFF7CFFE26208DF8000001208DF85E
:104CD000030000208DF801008DF802006846FEF701
:104CE000E7FD06B010BD0000000801400044004090
:104CF0000FB430B5CBB0054601AC50A800904FF4CE
:104D0000947101A8009B4F9AFBF71CFB00200090B8
:104D10000BE014F8011B2846FFF736FF00BF4021C7
:104D20002846FFF768FE0028F9D020780028F0D147
:104D30004BB030BC5DF814FB2DE9F04107460C4642
:104D4000154600260DE014F8011B3846FFF71CFF3E
:104D500000BF40213846FFF74EFE0028F9D0701CF6
:104D600086B2AE42EFDBBDE8F081490050EAC120D7
:104D700018BF04204A0D18BF40F0010040F2FF7236
:104D8000B2EB515F08BF40F00200012808BF0520C8
:104D900070472DE9F0414F1E00EBC7010446D1E9F1
:104DA000000115461E4637F006020DD02A4633464E
:104DB00001F0A4FE7F1E04EBC703D3E9002301F03A
:104DC000C5FB37F00602F1D1022F25D0042F13D0F6
:104DD000062F18BFBDE8F0812A46334601F08EFE4B
:104DE000D4E90A2301F0B2FB2A46334601F086FEDD
:104DF000D4E9082301F0AAFB2A46334601F07EFEDF
:104E0000D4E9062301F0A2FB2A46334601F076FEE0
:104E1000D4E9042301F09AFB2A46334601F06EFEE2
:104E2000D4E9022301F092FB2A46334601F066FEE4
:104E3000D4E90023BDE8F04101F088BB002213460D
:104E40001046014901F03EBC0000F03F01F07EBB7E
:104E5000002213461046114601F034BC40F20132E4
:104E600000204FF0E04102F0F5B90000024A0020B6
:104E7000110702F0EFB9000001FDFFFF30380A28EA
:104E800001D2012070470020704710B5044600BFD2
:104E9000FDF71CFA4620FDF7E9F9FDF74DFA002869
:104EA000F6D12046FDF7E2F9FDF746FAFDF72AFABA
:104EB00010BD00002DE9F05F81468A46FDF706FA35
:104EC0004720FDF7D3F9FDF737FA0120FDF7A2F9E6
:104ED00004464FF6FF7000EA04240020FDF79AF91B
:104EE000204484B2FDF70EFA204601F0B7FD0746D4
:104EF0004FF03332114B01F0E5FB054601F06AFD3E
:104F0000A9F8000004EB8401480001F090FD05467B
:104F10004FF03332094B01F0D5FB074601F0E4FABC
:104F20008346584602F0FAF80A2190FBF1F201FBA1
:104F300012008AF80000BDE8F09F00003333F33F11
:104F400070B5044622E02568A08900F4807020B97D
:104F5000A06810B1A068FFF7F3FFA08900F480708B
:104F600028B9206918B10B49206909688847A089C8
:104F700000F4007028B9206A18B10649206A09684F
:104F8000884720460349096888472C46002CDAD117
:104F900070BD000038000020014800687047000024
:104FA0003000002070B505460E46AC6800E024686D
:104FB0002CB13146206A00F04FF80028F7D1204686
:104FC00070BD000010B528200549096888470446CF
:104FD0001CB128212046FBF7BDFC204610BD000077
:104FE0003400002010B5044600221146204600F08F
:104FF00001F810BD2DE9F04780460D461646002405
:10500000FFF7E0FF07460020124908600FB9BDE82E
:10501000F087404601F00CFA81464946384600F0D8
:10502000BDFC044624B93846FFF78AFF0020EEE7AE
:1050300066B1204601F0FCF90446207830B13846CC
:10504000FFF77EFF034804600020E0E705B12C6015
:105050003846DCE73000002070B504460D462CB918
:10506000AC4201D0012070BD0020FCE70DB9012049
:10507000F9E705E0207808B90020F4E7641C6D1C0E
:105080002078FBF751F906462878FBF74DF9864260
:10509000F0D02078FBF748F906462878FBF744F96A
:1050A000301AE0E78CB06B4800680B906AA090E87B
:1050B0000E00C068CDE9082307910A90002500245E
:1050C0004FF4E15141F28830FFF71EFB4FF4E151FC
:1050D00040F6B830FFF780FBFDF72EFEFDF776F9BE
:1050E000FEF7BEFCFDF7E8F9FDF74CF9FDF7E2FD30
:1050F0004FF4E130FFF74EFD4FF4E130FFF7A2FD32
:10510000FEF787FBFDF77EF957A15C48FFF7F0FD3E
:10511000FDF7E6FA03E04FF4FA70FDF788FAFEF7C0
:1051200075FD0028F7D15649086040F6C410FDF718
:105130007EFA01205349C1F8800101210BA8FFF735
:10514000FBF886E0142095FBF0F100FB11500028DD
:1051500045D102214C48FDF790FD4C4908704C495F
:105160004C48FFF7A7FE4C4B4C4A4D494D48FDF7C4
:1051700003FA474802784748008849490978494B6B
:105180001B78CDE90031CDE902024348037843485A
:10519000027845A13948FFF7ABFD514800780A284D
:1051A00014D14048007850280DDA3C480078232874
:1051B00009DA3848008842F21071884203DA002088
:1051C0004849087002E001204649087044480078C8
:1051D0000A2804DA42480078401C41490870681CDB
:1051E00080B20546642828DB3FA12448FFF780FDF4
:1051F0003C4801782548007808B9012000E00020EB
:10520000234A1278234B1B88CDE90232CDE90401F1
:105210002348007823490978CDE900101E48037817
:105220001E48027835A14548FBF7A6F8434907A870
:10523000FEF726FE0025FDF71DFA0420FDF728FAEB
:10524000044614B12046FEF759FE42F21070FDF7F5
:10525000F3F877E7D87800082F6C6977656E686196
:105260006F2F707562000000204861726477617270
:105270006520696E6974204F4B0D0A0000380140AB
:105280008001214200002142000801403E00002030
:105290004600002044000020420000204100002081
:1052A000400000203F000020E6B8A9E5BAA6EFBC08
:1052B0009A25642E25642020E6B9BFE5BAA6EFBC86
:1052C0009A25642E25642020E58589E785A7E5BC1D
:1052D000BAE5BAA6EFBC9A25642E25640D0A000033
:1052E0003C0000203D0000204F6E654E65745F500D
:1052F00075626C6973680D0A000000007B225465BA
:105300006D70223A25642E25642C2248756D692221
:105310003A25642E25642C224C69676874223A254C
:10532000642E25642C224C4544223A25642C2242CA
:10533000656570223A25647D00000000DC000020D5
:105340002DE9F04705460C4620785B2804D0264816
:1053500004600020BDE8F0870520E860601C01F0D3
:1053600067F8044620785D2801D1601CF2E7FFF75A
:1053700029FE0646A860A86808B90020EAE720468A
:1053800001F056F880464146304600F007FB0746DC
:1053900001F04EF804460CB90020DBE717E0FFF7F8
:1053A00011FE071E00D1D5E737607E603E46601CC7
:1053B00001F03EF881464946304600F0EFFA80465B
:1053C00001F036F804460CB90020C3E700BF20788E
:1053D0002C28E4D020785D2801D1601CBAE702486F
:1053E00004600020B6E700003000002001460022E3
:1053F0000878302806DB0878392803DC087830384C
:10540000024415E00878412806DB0878462803DCCA
:105410000878373802440BE00878612806DB087802
:10542000662803DC08785738024401E00020704702
:105430001201491C0878302806DB0878392803DC7B
:1054400008783038024415E00878412806DB0878EF
:10545000462803DC0878373802440BE008786128D6
:1054600006DB0878662803DC08785738024401E038
:105470000020DCE71201491C0878302806DB087898
:10548000392803DC08783038024415E008784128D0
:1054900006DB0878462803DC0878373802440BE03E
:1054A0000878612806DB0878662803DC0878573816
:1054B000024401E00020BAE71201491C08783028B4
:1054C00006DB0878392803DC08783038024415E018
:1054D0000878412806DB0878462803DC0878373846
:1054E00002440BE00878612806DB0878662803DCB4
:1054F00008785738024401E0002098E7104696E704
:105500002DE9F04F8BB083468A46002004460546BD
:105510000026674F0021884689460990012008909F
:105520009AF800002D2802D1624F0AF1010A9AF878
:105530000000302801D10AF1010A9AF80000312850
:1055400022DB9AF8000039281EDC00BF1AF8011B84
:10555000A1F1300001F06BFA0022574BCDE90601B2
:105560002046294601F0CAFACDE90401DDE9062307
:1055700000F0ECFF04460D469AF80000302803DBEB
:105580009AF800003928E1DD9AF800002E2830D181
:105590009AF8010030282CDB9AF80100392828DC21
:1055A0000AF1010A00BF1AF8011BA1F1300001F055
:1055B0003EFA0022404BCDE906012046294601F083
:1055C0009DFACDE90401DDE9062300F0BFFF0446A2
:1055D0000D460022364B4046494601F0B5FC804658
:1055E00089469AF80000302803DB9AF80000392831
:1055F000D9DD9AF80000652803D09AF80000452804
:1056000023D10AF1010A9AF800002B2802D10AF1ED
:10561000010A08E09AF800002D2804D14FF0FF306D
:1056200008900AF1010A08E01AF8010B30380999CC
:1056300001EB810100EB410009909AF8000030284D
:1056400003DB9AF800003928EEDDDDE9082101FBD3
:1056500002F001F0ECF942464B46CDE9000100F0C2
:1056600075FF02460B46CDE902010020124900F009
:10567000F3F922462B46CDE906013046394601F0C2
:105680003DFACDE90401DDE9062301F037FA0446CD
:105690000D46CBE906452046294601F06BF9CBF8CB
:1056A00014000320CBF80C0050460BB0BDE8F08F7F
:1056B0000000F03F0000F0BF000024402DE9F0475B
:1056C00006460C4620787B2804D040480460002021
:1056D000BDE8F0870620F060601C00F0A9FE0446DB
:1056E00020787D2801D1601CF2E7FFF76BFC0546AE
:1056F000B060B06808B90020EAE7204600F098FEE4
:1057000080464146284600F063F8074600F090FEC8
:1057100004460CB90020DBE72869286200202861D4
:1057200020783A2803D0294804600020D0E7601C84
:1057300000F07EFE80464146284600F02FF90746DD
:1057400000F076FE04460CB90020C1E731E0FFF717
:1057500039FC071E00D1BBE72F607D603D46601C11
:1057600000F066FE81464946284600F031F8804642
:1057700000F05EFE04460CB90020A9E72869286203
:105780000020286120783A2803D0104804600020C7
:105790009EE7601C00F04CFE81464946284600F01A
:1057A000FDF8804600F044FE04460CB900208FE767
:1057B00000BF20782C28CAD020787D2801D1601C19
:1057C00086E702480460002082E7000030000020E5
:1057D0002DE9F05F8346884608F10104002798F818
:1057E0000000222805D06A48C0F800800020BDE8EB
:1057F000F09F04E014F8011B5C2900D1641C2078A0
:10580000222804D0207810B1781C071EF2D1781C11
:105810006049096888478146B9F1000F01D100202D
:10582000E5E708F101044D469EE020785C2804D0AD
:1058300014F8010B05F8010B96E0641C207872281F
:1058400018D006DC622809D066280BD06E287DD1DE
:105850000CE0742812D07528F9D113E0082005F85F
:10586000010B7FE00C2005F8010B7BE00A2005F816
:10587000010B77E00D2005F8010B73E0092005F816
:10588000010B6FE0601CFFF7B1FD0646241DB6F565
:105890005C4F02D3B6F5604F00D306B962E0B6F5AF
:1058A000584F1CD3B6F55C4F19D260785C2802D1F2
:1058B000A078752800D055E0E01CFFF797FD8246E0
:1058C000A41DBAF55C4F02D3BAF5604F00D349E08E
:1058D000C6F30901504661F39F2000F58036042786
:1058E000802E01D2012708E0B6F5006F01D2022711
:1058F00003E0B6F5803F00D203273D44012F20D0BE
:10590000022F15D0032F0AD0042F24D106F0BF0098
:1059100040F08001681E05460170B60900BF06F020
:10592000BF0040F08001681E05460170B60900BF47
:1059300006F0BF0040F08001681E05460170B60900
:1059400000BF1548C05D3043C1B200E006E0681EEC
:105950000546017000BF00BF3D4403E0207805F814
:10596000010B00BF00BF641C2078222803D02078E0
:1059700000287FF45AAF002028702078222800D118
:10598000641CCBF810900420CBF80C0020462EE7C6
:105990003000002034000020D078000870B50546A3
:1059A0000C460CB9002070BD042224A12046FAF751
:1059B000EDFE18B90220E860201DF4E7052221A1C0
:1059C0002046FAF7E3FE18B90020E860601DEAE718
:1059D00004221EA12046FAF7D9FE20B90120E86072
:1059E0006861201DDFE72078222804D1214628465F
:1059F000FFF7EEFED7E720782D2805D02078302855
:105A000007DB2078392804DC21462846FFF778FD9B
:105A1000C9E720785B2804D121462846FFF790FC8F
:105A2000C1E720787B2804D121462846FFF746FEAF
:105A3000B9E7084804600020B5E700006E756C6C9B
:105A40000000000066616C7365000000747275658B
:105A500000000000300000202DE9F04D1D460C46EE
:105A600098B0174621F0004123F00043002814BFEE
:105A70004FF0010C4FF0000C0CEB440CFE4A0CEB09
:105A800002064FEA620C66452BD33E0018BF012682
:105A900006EB45061644F94A964222D3F84A53EAE1
:105AA000070C02D0944205D148B918B00020114625
:105AB000BDE8F08D002808BF4FF0000C01D04FF07A
:105AC000010C0CEB440212F5001F0AD8002F14BF82
:105AD0004FF0010C4FF0000C0CEB450212F5001FCB
